{
	"contracts/GameFlip.sol": {
		"CoinFlip": {
			"abi": [
				{
					"inputs": [],
					"stateMutability": "nonpayable",
					"type": "constructor"
				},
				{
					"anonymous": false,
					"inputs": [
						{
							"indexed": true,
							"internalType": "address",
							"name": "",
							"type": "address"
						},
						{
							"indexed": true,
							"internalType": "address",
							"name": "newOwner",
							"type": "address"
						}
					],
					"name": "OwnerSet",
					"type": "event"
				},
				{
					"anonymous": false,
					"inputs": [
						{
							"indexed": false,
							"internalType": "address",
							"name": "winnerAddress",
							"type": "address"
						},
						{
							"indexed": false,
							"internalType": "uint256",
							"name": "winAmount",
							"type": "uint256"
						}
					],
					"name": "Winner",
					"type": "event"
				},
				{
					"inputs": [
						{
							"internalType": "uint256",
							"name": "_betchoice",
							"type": "uint256"
						},
						{
							"internalType": "uint256",
							"name": "_betAmount",
							"type": "uint256"
						}
					],
					"name": "placeBet",
					"outputs": [],
					"stateMutability": "nonpayable",
					"type": "function"
				},
				{
					"inputs": [],
					"name": "rewardBets",
					"outputs": [],
					"stateMutability": "nonpayable",
					"type": "function"
				},
				{
					"inputs": [
						{
							"internalType": "address",
							"name": "",
							"type": "address"
						}
					],
					"name": "users",
					"outputs": [
						{
							"internalType": "uint256",
							"name": "balance",
							"type": "uint256"
						},
						{
							"internalType": "uint256",
							"name": "betAmount",
							"type": "uint256"
						},
						{
							"internalType": "bool",
							"name": "betStatus",
							"type": "bool"
						},
						{
							"internalType": "uint256",
							"name": "betChoice",
							"type": "uint256"
						},
						{
							"internalType": "bool",
							"name": "prevUser",
							"type": "bool"
						}
					],
					"stateMutability": "view",
					"type": "function"
				}
			],
			"devdoc": {
				"kind": "dev",
				"methods": {},
				"version": 1
			},
			"evm": {
				"assembly": "    /* \"contracts/GameFlip.sol\":78:3309  contract CoinFlip {... */\n  mstore(0x40, 0x80)\n    /* \"contracts/GameFlip.sol\":352:443  constructor() {... */\n  callvalue\n  dup1\n  iszero\n  tag_1\n  jumpi\n  0x00\n  dup1\n  revert\ntag_1:\n  pop\n    /* \"contracts/GameFlip.sol\":384:394  msg.sender */\n  caller\n    /* \"contracts/GameFlip.sol\":376:381  owner */\n  0x00\n  dup1\n    /* \"contracts/GameFlip.sol\":376:394  owner = msg.sender */\n  0x0100\n  exp\n  dup2\n  sload\n  dup2\n  0xffffffffffffffffffffffffffffffffffffffff\n  mul\n  not\n  and\n  swap1\n  dup4\n  0xffffffffffffffffffffffffffffffffffffffff\n  and\n  mul\n  or\n  swap1\n  sstore\n  pop\n    /* \"contracts/GameFlip.sol\":430:435  owner */\n  0x00\n  dup1\n  sload\n  swap1\n  0x0100\n  exp\n  swap1\n  div\n  0xffffffffffffffffffffffffffffffffffffffff\n  and\n    /* \"contracts/GameFlip.sol\":409:436  OwnerSet(address(0), owner) */\n  0xffffffffffffffffffffffffffffffffffffffff\n  and\n    /* \"contracts/GameFlip.sol\":426:427  0 */\n  0x00\n    /* \"contracts/GameFlip.sol\":409:436  OwnerSet(address(0), owner) */\n  0xffffffffffffffffffffffffffffffffffffffff\n  and\n  0x342827c97908e5e2f71151c08502a66d44b6f758e3ac2f1de95f02eb95f0a735\n  mload(0x40)\n  mload(0x40)\n  dup1\n  swap2\n  sub\n  swap1\n  log3\n    /* \"contracts/GameFlip.sol\":78:3309  contract CoinFlip {... */\n  dataSize(sub_0)\n  dup1\n  dataOffset(sub_0)\n  0x00\n  codecopy\n  0x00\n  return\nstop\n\nsub_0: assembly {\n        /* \"contracts/GameFlip.sol\":78:3309  contract CoinFlip {... */\n      mstore(0x40, 0x80)\n      callvalue\n      dup1\n      iszero\n      tag_1\n      jumpi\n      0x00\n      dup1\n      revert\n    tag_1:\n      pop\n      jumpi(tag_2, lt(calldatasize, 0x04))\n      shr(0xe0, calldataload(0x00))\n      dup1\n      0x4afe62b5\n      eq\n      tag_3\n      jumpi\n      dup1\n      0xa87430ba\n      eq\n      tag_4\n      jumpi\n      dup1\n      0xdc7e462e\n      eq\n      tag_5\n      jumpi\n    tag_2:\n      0x00\n      dup1\n      revert\n        /* \"contracts/GameFlip.sol\":1174:2083  function placeBet(uint _betchoice, uint _betAmount) public {... */\n    tag_3:\n      tag_6\n      0x04\n      dup1\n      calldatasize\n      sub\n      dup2\n      add\n      swap1\n      tag_7\n      swap2\n      swap1\n      tag_8\n      jump\t// in\n    tag_7:\n      tag_9\n      jump\t// in\n    tag_6:\n      stop\n        /* \"contracts/GameFlip.sol\":1094:1131  mapping(address => User) public users */\n    tag_4:\n      tag_10\n      0x04\n      dup1\n      calldatasize\n      sub\n      dup2\n      add\n      swap1\n      tag_11\n      swap2\n      swap1\n      tag_12\n      jump\t// in\n    tag_11:\n      tag_13\n      jump\t// in\n    tag_10:\n      mload(0x40)\n      tag_14\n      swap6\n      swap5\n      swap4\n      swap3\n      swap2\n      swap1\n      tag_15\n      jump\t// in\n    tag_14:\n      mload(0x40)\n      dup1\n      swap2\n      sub\n      swap1\n      return\n        /* \"contracts/GameFlip.sol\":2089:2456  function rewardBets() public isOwner { ... */\n    tag_5:\n      tag_16\n      tag_17\n      jump\t// in\n    tag_16:\n      stop\n        /* \"contracts/GameFlip.sol\":1174:2083  function placeBet(uint _betchoice, uint _betAmount) public {... */\n    tag_9:\n        /* \"contracts/GameFlip.sol\":1361:1366  false */\n      0x00\n        /* \"contracts/GameFlip.sol\":1331:1366  users[msg.sender].prevUser == false */\n      iszero\n      iszero\n        /* \"contracts/GameFlip.sol\":1331:1336  users */\n      0x02\n        /* \"contracts/GameFlip.sol\":1331:1348  users[msg.sender] */\n      0x00\n        /* \"contracts/GameFlip.sol\":1337:1347  msg.sender */\n      caller\n        /* \"contracts/GameFlip.sol\":1331:1348  users[msg.sender] */\n      0xffffffffffffffffffffffffffffffffffffffff\n      and\n      0xffffffffffffffffffffffffffffffffffffffff\n      and\n      dup2\n      mstore\n      0x20\n      add\n      swap1\n      dup2\n      mstore\n      0x20\n      add\n      0x00\n      keccak256\n        /* \"contracts/GameFlip.sol\":1331:1357  users[msg.sender].prevUser */\n      0x04\n      add\n      0x00\n      swap1\n      sload\n      swap1\n      0x0100\n      exp\n      swap1\n      div\n      0xff\n      and\n        /* \"contracts/GameFlip.sol\":1331:1366  users[msg.sender].prevUser == false */\n      iszero\n      iszero\n      eq\n        /* \"contracts/GameFlip.sol\":1328:1479  if(users[msg.sender].prevUser == false)... */\n      iszero\n      tag_19\n      jumpi\n        /* \"contracts/GameFlip.sol\":1418:1421  100 */\n      0x64\n        /* \"contracts/GameFlip.sol\":1390:1395  users */\n      0x02\n        /* \"contracts/GameFlip.sol\":1390:1407  users[msg.sender] */\n      0x00\n        /* \"contracts/GameFlip.sol\":1396:1406  msg.sender */\n      caller\n        /* \"contracts/GameFlip.sol\":1390:1407  users[msg.sender] */\n      0xffffffffffffffffffffffffffffffffffffffff\n      and\n      0xffffffffffffffffffffffffffffffffffffffff\n      and\n      dup2\n      mstore\n      0x20\n      add\n      swap1\n      dup2\n      mstore\n      0x20\n      add\n      0x00\n      keccak256\n        /* \"contracts/GameFlip.sol\":1390:1415  users[msg.sender].balance */\n      0x00\n      add\n        /* \"contracts/GameFlip.sol\":1390:1421  users[msg.sender].balance = 100 */\n      dup2\n      swap1\n      sstore\n      pop\n        /* \"contracts/GameFlip.sol\":1464:1468  true */\n      0x01\n        /* \"contracts/GameFlip.sol\":1435:1440  users */\n      0x02\n        /* \"contracts/GameFlip.sol\":1435:1452  users[msg.sender] */\n      0x00\n        /* \"contracts/GameFlip.sol\":1441:1451  msg.sender */\n      caller\n        /* \"contracts/GameFlip.sol\":1435:1452  users[msg.sender] */\n      0xffffffffffffffffffffffffffffffffffffffff\n      and\n      0xffffffffffffffffffffffffffffffffffffffff\n      and\n      dup2\n      mstore\n      0x20\n      add\n      swap1\n      dup2\n      mstore\n      0x20\n      add\n      0x00\n      keccak256\n        /* \"contracts/GameFlip.sol\":1435:1461  users[msg.sender].prevUser */\n      0x04\n      add\n      0x00\n        /* \"contracts/GameFlip.sol\":1435:1468  users[msg.sender].prevUser = true */\n      0x0100\n      exp\n      dup2\n      sload\n      dup2\n      0xff\n      mul\n      not\n      and\n      swap1\n      dup4\n      iszero\n      iszero\n      mul\n      or\n      swap1\n      sstore\n      pop\n        /* \"contracts/GameFlip.sol\":1328:1479  if(users[msg.sender].prevUser == false)... */\n    tag_19:\n        /* \"contracts/GameFlip.sol\":1585:1590  users */\n      0x02\n        /* \"contracts/GameFlip.sol\":1585:1602  users[msg.sender] */\n      0x00\n        /* \"contracts/GameFlip.sol\":1591:1601  msg.sender */\n      caller\n        /* \"contracts/GameFlip.sol\":1585:1602  users[msg.sender] */\n      0xffffffffffffffffffffffffffffffffffffffff\n      and\n      0xffffffffffffffffffffffffffffffffffffffff\n      and\n      dup2\n      mstore\n      0x20\n      add\n      swap1\n      dup2\n      mstore\n      0x20\n      add\n      0x00\n      keccak256\n        /* \"contracts/GameFlip.sol\":1585:1610  users[msg.sender].balance */\n      0x00\n      add\n      sload\n        /* \"contracts/GameFlip.sol\":1571:1581  _betAmount */\n      dup2\n        /* \"contracts/GameFlip.sol\":1571:1610  _betAmount <= users[msg.sender].balance */\n      gt\n      iszero\n        /* \"contracts/GameFlip.sol\":1563:1636  require(_betAmount <= users[msg.sender].balance, \"Sorry! Low balance ;(\") */\n      tag_20\n      jumpi\n      mload(0x40)\n      0x08c379a000000000000000000000000000000000000000000000000000000000\n      dup2\n      mstore\n      0x04\n      add\n      tag_21\n      swap1\n      tag_22\n      jump\t// in\n    tag_21:\n      mload(0x40)\n      dup1\n      swap2\n      sub\n      swap1\n      revert\n    tag_20:\n        /* \"contracts/GameFlip.sol\":1772:1777  false */\n      0x00\n        /* \"contracts/GameFlip.sol\":1741:1777  users[msg.sender].betStatus == false */\n      iszero\n      iszero\n        /* \"contracts/GameFlip.sol\":1741:1746  users */\n      0x02\n        /* \"contracts/GameFlip.sol\":1741:1758  users[msg.sender] */\n      0x00\n        /* \"contracts/GameFlip.sol\":1747:1757  msg.sender */\n      caller\n        /* \"contracts/GameFlip.sol\":1741:1758  users[msg.sender] */\n      0xffffffffffffffffffffffffffffffffffffffff\n      and\n      0xffffffffffffffffffffffffffffffffffffffff\n      and\n      dup2\n      mstore\n      0x20\n      add\n      swap1\n      dup2\n      mstore\n      0x20\n      add\n      0x00\n      keccak256\n        /* \"contracts/GameFlip.sol\":1741:1768  users[msg.sender].betStatus */\n      0x02\n      add\n      0x00\n      swap1\n      sload\n      swap1\n      0x0100\n      exp\n      swap1\n      div\n      0xff\n      and\n        /* \"contracts/GameFlip.sol\":1741:1777  users[msg.sender].betStatus == false */\n      iszero\n      iszero\n      eq\n        /* \"contracts/GameFlip.sol\":1733:1816  require(users[msg.sender].betStatus == false, \"You already have an Ongoing Bet :|\") */\n      tag_23\n      jumpi\n      mload(0x40)\n      0x08c379a000000000000000000000000000000000000000000000000000000000\n      dup2\n      mstore\n      0x04\n      add\n      tag_24\n      swap1\n      tag_25\n      jump\t// in\n    tag_24:\n      mload(0x40)\n      dup1\n      swap2\n      sub\n      swap1\n      revert\n    tag_23:\n        /* \"contracts/GameFlip.sol\":1885:1895  _betAmount */\n      dup1\n        /* \"contracts/GameFlip.sol\":1855:1860  users */\n      0x02\n        /* \"contracts/GameFlip.sol\":1855:1872  users[msg.sender] */\n      0x00\n        /* \"contracts/GameFlip.sol\":1861:1871  msg.sender */\n      caller\n        /* \"contracts/GameFlip.sol\":1855:1872  users[msg.sender] */\n      0xffffffffffffffffffffffffffffffffffffffff\n      and\n      0xffffffffffffffffffffffffffffffffffffffff\n      and\n      dup2\n      mstore\n      0x20\n      add\n      swap1\n      dup2\n      mstore\n      0x20\n      add\n      0x00\n      keccak256\n        /* \"contracts/GameFlip.sol\":1855:1882  users[msg.sender].betAmount */\n      0x01\n      add\n        /* \"contracts/GameFlip.sol\":1855:1895  users[msg.sender].betAmount = _betAmount */\n      dup2\n      swap1\n      sstore\n      pop\n        /* \"contracts/GameFlip.sol\":1934:1944  _betAmount */\n      dup1\n        /* \"contracts/GameFlip.sol\":1905:1910  users */\n      0x02\n        /* \"contracts/GameFlip.sol\":1905:1922  users[msg.sender] */\n      0x00\n        /* \"contracts/GameFlip.sol\":1911:1921  msg.sender */\n      caller\n        /* \"contracts/GameFlip.sol\":1905:1922  users[msg.sender] */\n      0xffffffffffffffffffffffffffffffffffffffff\n      and\n      0xffffffffffffffffffffffffffffffffffffffff\n      and\n      dup2\n      mstore\n      0x20\n      add\n      swap1\n      dup2\n      mstore\n      0x20\n      add\n      0x00\n      keccak256\n        /* \"contracts/GameFlip.sol\":1905:1930  users[msg.sender].balance */\n      0x00\n      add\n      0x00\n        /* \"contracts/GameFlip.sol\":1905:1944  users[msg.sender].balance -= _betAmount */\n      dup3\n      dup3\n      sload\n      tag_26\n      swap2\n      swap1\n      tag_27\n      jump\t// in\n    tag_26:\n      swap3\n      pop\n      pop\n      dup2\n      swap1\n      sstore\n      pop\n        /* \"contracts/GameFlip.sol\":1984:1988  true */\n      0x01\n        /* \"contracts/GameFlip.sol\":1954:1959  users */\n      0x02\n        /* \"contracts/GameFlip.sol\":1954:1971  users[msg.sender] */\n      0x00\n        /* \"contracts/GameFlip.sol\":1960:1970  msg.sender */\n      caller\n        /* \"contracts/GameFlip.sol\":1954:1971  users[msg.sender] */\n      0xffffffffffffffffffffffffffffffffffffffff\n      and\n      0xffffffffffffffffffffffffffffffffffffffff\n      and\n      dup2\n      mstore\n      0x20\n      add\n      swap1\n      dup2\n      mstore\n      0x20\n      add\n      0x00\n      keccak256\n        /* \"contracts/GameFlip.sol\":1954:1981  users[msg.sender].betStatus */\n      0x02\n      add\n      0x00\n        /* \"contracts/GameFlip.sol\":1954:1988  users[msg.sender].betStatus = true */\n      0x0100\n      exp\n      dup2\n      sload\n      dup2\n      0xff\n      mul\n      not\n      and\n      swap1\n      dup4\n      iszero\n      iszero\n      mul\n      or\n      swap1\n      sstore\n      pop\n        /* \"contracts/GameFlip.sol\":2028:2038  _betchoice */\n      dup2\n        /* \"contracts/GameFlip.sol\":1998:2003  users */\n      0x02\n        /* \"contracts/GameFlip.sol\":1998:2015  users[msg.sender] */\n      0x00\n        /* \"contracts/GameFlip.sol\":2004:2014  msg.sender */\n      caller\n        /* \"contracts/GameFlip.sol\":1998:2015  users[msg.sender] */\n      0xffffffffffffffffffffffffffffffffffffffff\n      and\n      0xffffffffffffffffffffffffffffffffffffffff\n      and\n      dup2\n      mstore\n      0x20\n      add\n      swap1\n      dup2\n      mstore\n      0x20\n      add\n      0x00\n      keccak256\n        /* \"contracts/GameFlip.sol\":1998:2025  users[msg.sender].betChoice */\n      0x03\n      add\n        /* \"contracts/GameFlip.sol\":1998:2038  users[msg.sender].betChoice = _betchoice */\n      dup2\n      swap1\n      sstore\n      pop\n        /* \"contracts/GameFlip.sol\":2048:2059  usersBetted */\n      0x01\n        /* \"contracts/GameFlip.sol\":2065:2075  msg.sender */\n      caller\n        /* \"contracts/GameFlip.sol\":2048:2076  usersBetted.push(msg.sender) */\n      swap1\n      dup1\n      0x01\n      dup2\n      sload\n      add\n      dup1\n      dup3\n      sstore\n      dup1\n      swap2\n      pop\n      pop\n      0x01\n      swap1\n      sub\n      swap1\n      0x00\n      mstore\n      keccak256(0x00, 0x20)\n      add\n      0x00\n      swap1\n      swap2\n      swap1\n      swap2\n      swap1\n      swap2\n      0x0100\n      exp\n      dup2\n      sload\n      dup2\n      0xffffffffffffffffffffffffffffffffffffffff\n      mul\n      not\n      and\n      swap1\n      dup4\n      0xffffffffffffffffffffffffffffffffffffffff\n      and\n      mul\n      or\n      swap1\n      sstore\n      pop\n        /* \"contracts/GameFlip.sol\":1174:2083  function placeBet(uint _betchoice, uint _betAmount) public {... */\n      pop\n      pop\n      jump\t// out\n        /* \"contracts/GameFlip.sol\":1094:1131  mapping(address => User) public users */\n    tag_13:\n      mstore(0x20, 0x02)\n      dup1\n      0x00\n      mstore\n      keccak256(0x00, 0x40)\n      0x00\n      swap2\n      pop\n      swap1\n      pop\n      dup1\n      0x00\n      add\n      sload\n      swap1\n      dup1\n      0x01\n      add\n      sload\n      swap1\n      dup1\n      0x02\n      add\n      0x00\n      swap1\n      sload\n      swap1\n      0x0100\n      exp\n      swap1\n      div\n      0xff\n      and\n      swap1\n      dup1\n      0x03\n      add\n      sload\n      swap1\n      dup1\n      0x04\n      add\n      0x00\n      swap1\n      sload\n      swap1\n      0x0100\n      exp\n      swap1\n      div\n      0xff\n      and\n      swap1\n      pop\n      dup6\n      jump\t// out\n        /* \"contracts/GameFlip.sol\":2089:2456  function rewardBets() public isOwner { ... */\n    tag_17:\n        /* \"contracts/GameFlip.sol\":298:303  owner */\n      0x00\n      dup1\n      sload\n      swap1\n      0x0100\n      exp\n      swap1\n      div\n      0xffffffffffffffffffffffffffffffffffffffff\n      and\n        /* \"contracts/GameFlip.sol\":284:303  msg.sender == owner */\n      0xffffffffffffffffffffffffffffffffffffffff\n      and\n        /* \"contracts/GameFlip.sol\":284:294  msg.sender */\n      caller\n        /* \"contracts/GameFlip.sol\":284:303  msg.sender == owner */\n      0xffffffffffffffffffffffffffffffffffffffff\n      and\n      eq\n        /* \"contracts/GameFlip.sol\":276:328  require(msg.sender == owner, \"Invoker is not Owner\") */\n      tag_30\n      jumpi\n      mload(0x40)\n      0x08c379a000000000000000000000000000000000000000000000000000000000\n      dup2\n      mstore\n      0x04\n      add\n      tag_31\n      swap1\n      tag_32\n      jump\t// in\n    tag_31:\n      mload(0x40)\n      dup1\n      swap2\n      sub\n      swap1\n      revert\n    tag_30:\n        /* \"contracts/GameFlip.sol\":2182:2199  uint256 winChoice */\n      0x00\n        /* \"contracts/GameFlip.sol\":2220:2221  2 */\n      0x02\n        /* \"contracts/GameFlip.sol\":2210:2216  _vrf() */\n      tag_34\n        /* \"contracts/GameFlip.sol\":2210:2214  _vrf */\n      tag_35\n        /* \"contracts/GameFlip.sol\":2210:2216  _vrf() */\n      jump\t// in\n    tag_34:\n        /* \"contracts/GameFlip.sol\":2202:2217  uint256(_vrf()) */\n      0x00\n      shr\n        /* \"contracts/GameFlip.sol\":2202:2221  uint256(_vrf()) % 2 */\n      tag_36\n      swap2\n      swap1\n      tag_37\n      jump\t// in\n    tag_36:\n        /* \"contracts/GameFlip.sol\":2182:2221  uint256 winChoice = uint256(_vrf()) % 2 */\n      swap1\n      pop\n        /* \"contracts/GameFlip.sol\":2309:2315  uint i */\n      0x00\n        /* \"contracts/GameFlip.sol\":2305:2422  for(uint i = 0; i < usersBetted.length; i++)... */\n    tag_38:\n        /* \"contracts/GameFlip.sol\":2325:2336  usersBetted */\n      0x01\n        /* \"contracts/GameFlip.sol\":2325:2343  usersBetted.length */\n      dup1\n      sload\n      swap1\n      pop\n        /* \"contracts/GameFlip.sol\":2321:2322  i */\n      dup2\n        /* \"contracts/GameFlip.sol\":2321:2343  i < usersBetted.length */\n      lt\n        /* \"contracts/GameFlip.sol\":2305:2422  for(uint i = 0; i < usersBetted.length; i++)... */\n      iszero\n      tag_39\n      jumpi\n        /* \"contracts/GameFlip.sol\":2372:2411  evaluateBets(usersBetted[i], winChoice) */\n      tag_41\n        /* \"contracts/GameFlip.sol\":2385:2396  usersBetted */\n      0x01\n        /* \"contracts/GameFlip.sol\":2397:2398  i */\n      dup3\n        /* \"contracts/GameFlip.sol\":2385:2399  usersBetted[i] */\n      dup2\n      sload\n      dup2\n      lt\n      tag_42\n      jumpi\n      tag_43\n      tag_44\n      jump\t// in\n    tag_43:\n    tag_42:\n      swap1\n      0x00\n      mstore\n      keccak256(0x00, 0x20)\n      add\n      0x00\n      swap1\n      sload\n      swap1\n      0x0100\n      exp\n      swap1\n      div\n      0xffffffffffffffffffffffffffffffffffffffff\n      and\n        /* \"contracts/GameFlip.sol\":2401:2410  winChoice */\n      dup4\n        /* \"contracts/GameFlip.sol\":2372:2384  evaluateBets */\n      tag_46\n        /* \"contracts/GameFlip.sol\":2372:2411  evaluateBets(usersBetted[i], winChoice) */\n      jump\t// in\n    tag_41:\n        /* \"contracts/GameFlip.sol\":2345:2348  i++ */\n      dup1\n      dup1\n      tag_47\n      swap1\n      tag_48\n      jump\t// in\n    tag_47:\n      swap2\n      pop\n      pop\n        /* \"contracts/GameFlip.sol\":2305:2422  for(uint i = 0; i < usersBetted.length; i++)... */\n      jump(tag_38)\n    tag_39:\n      pop\n        /* \"contracts/GameFlip.sol\":2438:2449  usersBetted */\n      0x01\n      0x00\n        /* \"contracts/GameFlip.sol\":2431:2449  delete usersBetted */\n      tag_49\n      swap2\n      swap1\n      tag_50\n      jump\t// in\n    tag_49:\n        /* \"contracts/GameFlip.sol\":2126:2456  { ... */\n      pop\n        /* \"contracts/GameFlip.sol\":2089:2456  function rewardBets() public isOwner { ... */\n      jump\t// out\n        /* \"contracts/GameFlip.sol\":2971:3306  function _vrf() private view returns (bytes32 result) {... */\n    tag_35:\n        /* \"contracts/GameFlip.sol\":3009:3023  bytes32 result */\n      0x00\n        /* \"contracts/GameFlip.sol\":3035:3052  uint[1] memory bn */\n      tag_52\n      tag_53\n      jump\t// in\n    tag_52:\n        /* \"contracts/GameFlip.sol\":3070:3082  block.number */\n      number\n        /* \"contracts/GameFlip.sol\":3062:3064  bn */\n      dup2\n        /* \"contracts/GameFlip.sol\":3065:3066  0 */\n      0x00\n        /* \"contracts/GameFlip.sol\":3062:3067  bn[0] */\n      0x01\n      dup2\n      lt\n      tag_54\n      jumpi\n      tag_55\n      tag_44\n      jump\t// in\n    tag_55:\n    tag_54:\n      0x20\n      mul\n      add\n        /* \"contracts/GameFlip.sol\":3062:3082  bn[0] = block.number */\n      dup2\n      dup2\n      mstore\n      pop\n      pop\n        /* \"contracts/GameFlip.sol\":3135:3139  0x40 */\n      0x40\n        /* \"contracts/GameFlip.sol\":3129:3140  mload(0x40) */\n      mload\n        /* \"contracts/GameFlip.sol\":3206:3210  0x20 */\n      0x20\n        /* \"contracts/GameFlip.sol\":3198:3204  memPtr */\n      dup2\n        /* \"contracts/GameFlip.sol\":3192:3196  0x20 */\n      0x20\n        /* \"contracts/GameFlip.sol\":3188:3190  bn */\n      dup5\n        /* \"contracts/GameFlip.sol\":3182:3186  0xff */\n      0xff\n        /* \"contracts/GameFlip.sol\":3178:3179  0 */\n      0x00\n        /* \"contracts/GameFlip.sol\":3174:3180  not(0) */\n      not\n        /* \"contracts/GameFlip.sol\":3163:3211  staticcall(not(0), 0xff, bn, 0x20, memPtr, 0x20) */\n      staticcall\n        /* \"contracts/GameFlip.sol\":3153:3254  if iszero(staticcall(not(0), 0xff, bn, 0x20, memPtr, 0x20)) {... */\n      tag_56\n      jumpi\n        /* \"contracts/GameFlip.sol\":3231:3240  invalid() */\n      invalid\n        /* \"contracts/GameFlip.sol\":3153:3254  if iszero(staticcall(not(0), 0xff, bn, 0x20, memPtr, 0x20)) {... */\n    tag_56:\n        /* \"contracts/GameFlip.sol\":3283:3289  memPtr */\n      dup1\n        /* \"contracts/GameFlip.sol\":3277:3290  mload(memPtr) */\n      mload\n        /* \"contracts/GameFlip.sol\":3267:3290  result := mload(memPtr) */\n      swap3\n      pop\n        /* \"contracts/GameFlip.sol\":3101:3300  {... */\n      pop\n      pop\n        /* \"contracts/GameFlip.sol\":2971:3306  function _vrf() private view returns (bytes32 result) {... */\n      swap1\n      jump\t// out\n        /* \"contracts/GameFlip.sol\":2462:2910  function evaluateBets(address _userAddress, uint _winChoice) internal {... */\n    tag_46:\n        /* \"contracts/GameFlip.sol\":2624:2634  _winChoice */\n      dup1\n        /* \"contracts/GameFlip.sol\":2591:2596  users */\n      0x02\n        /* \"contracts/GameFlip.sol\":2591:2610  users[_userAddress] */\n      0x00\n        /* \"contracts/GameFlip.sol\":2597:2609  _userAddress */\n      dup5\n        /* \"contracts/GameFlip.sol\":2591:2610  users[_userAddress] */\n      0xffffffffffffffffffffffffffffffffffffffff\n      and\n      0xffffffffffffffffffffffffffffffffffffffff\n      and\n      dup2\n      mstore\n      0x20\n      add\n      swap1\n      dup2\n      mstore\n      0x20\n      add\n      0x00\n      keccak256\n        /* \"contracts/GameFlip.sol\":2591:2620  users[_userAddress].betChoice */\n      0x03\n      add\n      sload\n        /* \"contracts/GameFlip.sol\":2591:2634  users[_userAddress].betChoice == _winChoice */\n      eq\n        /* \"contracts/GameFlip.sol\":2588:2803  if(users[_userAddress].betChoice == _winChoice) {... */\n      iszero\n      tag_58\n      jumpi\n        /* \"contracts/GameFlip.sol\":2686:2691  users */\n      0x02\n        /* \"contracts/GameFlip.sol\":2686:2705  users[_userAddress] */\n      0x00\n        /* \"contracts/GameFlip.sol\":2692:2704  _userAddress */\n      dup4\n        /* \"contracts/GameFlip.sol\":2686:2705  users[_userAddress] */\n      0xffffffffffffffffffffffffffffffffffffffff\n      and\n      0xffffffffffffffffffffffffffffffffffffffff\n      and\n      dup2\n      mstore\n      0x20\n      add\n      swap1\n      dup2\n      mstore\n      0x20\n      add\n      0x00\n      keccak256\n        /* \"contracts/GameFlip.sol\":2686:2715  users[_userAddress].betAmount */\n      0x01\n      add\n      sload\n        /* \"contracts/GameFlip.sol\":2682:2683  2 */\n      0x02\n        /* \"contracts/GameFlip.sol\":2682:2715  2 * users[_userAddress].betAmount */\n      tag_59\n      swap2\n      swap1\n      tag_60\n      jump\t// in\n    tag_59:\n        /* \"contracts/GameFlip.sol\":2650:2655  users */\n      0x02\n        /* \"contracts/GameFlip.sol\":2650:2669  users[_userAddress] */\n      0x00\n        /* \"contracts/GameFlip.sol\":2656:2668  _userAddress */\n      dup5\n        /* \"contracts/GameFlip.sol\":2650:2669  users[_userAddress] */\n      0xffffffffffffffffffffffffffffffffffffffff\n      and\n      0xffffffffffffffffffffffffffffffffffffffff\n      and\n      dup2\n      mstore\n      0x20\n      add\n      swap1\n      dup2\n      mstore\n      0x20\n      add\n      0x00\n      keccak256\n        /* \"contracts/GameFlip.sol\":2650:2677  users[_userAddress].balance */\n      0x00\n      add\n      0x00\n        /* \"contracts/GameFlip.sol\":2650:2716  users[_userAddress].balance += (2 * users[_userAddress].betAmount) */\n      dup3\n      dup3\n      sload\n      tag_61\n      swap2\n      swap1\n      tag_62\n      jump\t// in\n    tag_61:\n      swap3\n      pop\n      pop\n      dup2\n      swap1\n      sstore\n      pop\n        /* \"contracts/GameFlip.sol\":2735:2792  Winner(_userAddress, (2 * users[_userAddress].betAmount)) */\n      0x9c2270628a9b29d30ae96b6c4c14ed646ee134febdce38a5b77f2bde9cea2e20\n        /* \"contracts/GameFlip.sol\":2742:2754  _userAddress */\n      dup3\n        /* \"contracts/GameFlip.sol\":2761:2766  users */\n      0x02\n        /* \"contracts/GameFlip.sol\":2761:2780  users[_userAddress] */\n      0x00\n        /* \"contracts/GameFlip.sol\":2767:2779  _userAddress */\n      dup6\n        /* \"contracts/GameFlip.sol\":2761:2780  users[_userAddress] */\n      0xffffffffffffffffffffffffffffffffffffffff\n      and\n      0xffffffffffffffffffffffffffffffffffffffff\n      and\n      dup2\n      mstore\n      0x20\n      add\n      swap1\n      dup2\n      mstore\n      0x20\n      add\n      0x00\n      keccak256\n        /* \"contracts/GameFlip.sol\":2761:2790  users[_userAddress].betAmount */\n      0x01\n      add\n      sload\n        /* \"contracts/GameFlip.sol\":2757:2758  2 */\n      0x02\n        /* \"contracts/GameFlip.sol\":2757:2790  2 * users[_userAddress].betAmount */\n      tag_63\n      swap2\n      swap1\n      tag_60\n      jump\t// in\n    tag_63:\n        /* \"contracts/GameFlip.sol\":2735:2792  Winner(_userAddress, (2 * users[_userAddress].betAmount)) */\n      mload(0x40)\n      tag_64\n      swap3\n      swap2\n      swap1\n      tag_65\n      jump\t// in\n    tag_64:\n      mload(0x40)\n      dup1\n      swap2\n      sub\n      swap1\n      log1\n        /* \"contracts/GameFlip.sol\":2588:2803  if(users[_userAddress].betChoice == _winChoice) {... */\n    tag_58:\n        /* \"contracts/GameFlip.sol\":2898:2903  false */\n      0x00\n        /* \"contracts/GameFlip.sol\":2866:2871  users */\n      0x02\n        /* \"contracts/GameFlip.sol\":2866:2885  users[_userAddress] */\n      0x00\n        /* \"contracts/GameFlip.sol\":2872:2884  _userAddress */\n      dup5\n        /* \"contracts/GameFlip.sol\":2866:2885  users[_userAddress] */\n      0xffffffffffffffffffffffffffffffffffffffff\n      and\n      0xffffffffffffffffffffffffffffffffffffffff\n      and\n      dup2\n      mstore\n      0x20\n      add\n      swap1\n      dup2\n      mstore\n      0x20\n      add\n      0x00\n      keccak256\n        /* \"contracts/GameFlip.sol\":2866:2895  users[_userAddress].betStatus */\n      0x02\n      add\n      0x00\n        /* \"contracts/GameFlip.sol\":2866:2903  users[_userAddress].betStatus = false */\n      0x0100\n      exp\n      dup2\n      sload\n      dup2\n      0xff\n      mul\n      not\n      and\n      swap1\n      dup4\n      iszero\n      iszero\n      mul\n      or\n      swap1\n      sstore\n      pop\n        /* \"contracts/GameFlip.sol\":2462:2910  function evaluateBets(address _userAddress, uint _winChoice) internal {... */\n      pop\n      pop\n      jump\t// out\n    tag_50:\n      pop\n      dup1\n      sload\n      0x00\n      dup3\n      sstore\n      swap1\n      0x00\n      mstore\n      keccak256(0x00, 0x20)\n      swap1\n      dup2\n      add\n      swap1\n      tag_67\n      swap2\n      swap1\n      tag_68\n      jump\t// in\n    tag_67:\n      pop\n      jump\t// out\n    tag_53:\n      mload(0x40)\n      dup1\n      0x20\n      add\n      0x40\n      mstore\n      dup1\n      0x01\n      swap1\n      0x20\n      dup3\n      mul\n      dup1\n      calldatasize\n      dup4\n      calldatacopy\n      dup1\n      dup3\n      add\n      swap2\n      pop\n      pop\n      swap1\n      pop\n      pop\n      swap1\n      jump\t// out\n    tag_68:\n    tag_69:\n      dup1\n      dup3\n      gt\n      iszero\n      tag_70\n      jumpi\n      0x00\n      dup2\n      0x00\n      swap1\n      sstore\n      pop\n      0x01\n      add\n      jump(tag_69)\n    tag_70:\n      pop\n      swap1\n      jump\t// out\n        /* \"#utility.yul\":7:146   */\n    tag_72:\n        /* \"#utility.yul\":53:58   */\n      0x00\n        /* \"#utility.yul\":91:97   */\n      dup2\n        /* \"#utility.yul\":78:98   */\n      calldataload\n        /* \"#utility.yul\":69:98   */\n      swap1\n      pop\n        /* \"#utility.yul\":107:140   */\n      tag_74\n        /* \"#utility.yul\":134:139   */\n      dup2\n        /* \"#utility.yul\":107:140   */\n      tag_75\n      jump\t// in\n    tag_74:\n        /* \"#utility.yul\":7:146   */\n      swap3\n      swap2\n      pop\n      pop\n      jump\t// out\n        /* \"#utility.yul\":152:291   */\n    tag_76:\n        /* \"#utility.yul\":198:203   */\n      0x00\n        /* \"#utility.yul\":236:242   */\n      dup2\n        /* \"#utility.yul\":223:243   */\n      calldataload\n        /* \"#utility.yul\":214:243   */\n      swap1\n      pop\n        /* \"#utility.yul\":252:285   */\n      tag_78\n        /* \"#utility.yul\":279:284   */\n      dup2\n        /* \"#utility.yul\":252:285   */\n      tag_79\n      jump\t// in\n    tag_78:\n        /* \"#utility.yul\":152:291   */\n      swap3\n      swap2\n      pop\n      pop\n      jump\t// out\n        /* \"#utility.yul\":297:626   */\n    tag_12:\n        /* \"#utility.yul\":356:362   */\n      0x00\n        /* \"#utility.yul\":405:407   */\n      0x20\n        /* \"#utility.yul\":393:402   */\n      dup3\n        /* \"#utility.yul\":384:391   */\n      dup5\n        /* \"#utility.yul\":380:403   */\n      sub\n        /* \"#utility.yul\":376:408   */\n      slt\n        /* \"#utility.yul\":373:492   */\n      iszero\n      tag_81\n      jumpi\n        /* \"#utility.yul\":411:490   */\n      tag_82\n      tag_83\n      jump\t// in\n    tag_82:\n        /* \"#utility.yul\":373:492   */\n    tag_81:\n        /* \"#utility.yul\":531:532   */\n      0x00\n        /* \"#utility.yul\":556:609   */\n      tag_84\n        /* \"#utility.yul\":601:608   */\n      dup5\n        /* \"#utility.yul\":592:598   */\n      dup3\n        /* \"#utility.yul\":581:590   */\n      dup6\n        /* \"#utility.yul\":577:599   */\n      add\n        /* \"#utility.yul\":556:609   */\n      tag_72\n      jump\t// in\n    tag_84:\n        /* \"#utility.yul\":546:609   */\n      swap2\n      pop\n        /* \"#utility.yul\":502:619   */\n      pop\n        /* \"#utility.yul\":297:626   */\n      swap3\n      swap2\n      pop\n      pop\n      jump\t// out\n        /* \"#utility.yul\":632:1106   */\n    tag_8:\n        /* \"#utility.yul\":700:706   */\n      0x00\n        /* \"#utility.yul\":708:714   */\n      dup1\n        /* \"#utility.yul\":757:759   */\n      0x40\n        /* \"#utility.yul\":745:754   */\n      dup4\n        /* \"#utility.yul\":736:743   */\n      dup6\n        /* \"#utility.yul\":732:755   */\n      sub\n        /* \"#utility.yul\":728:760   */\n      slt\n        /* \"#utility.yul\":725:844   */\n      iszero\n      tag_86\n      jumpi\n        /* \"#utility.yul\":763:842   */\n      tag_87\n      tag_83\n      jump\t// in\n    tag_87:\n        /* \"#utility.yul\":725:844   */\n    tag_86:\n        /* \"#utility.yul\":883:884   */\n      0x00\n        /* \"#utility.yul\":908:961   */\n      tag_88\n        /* \"#utility.yul\":953:960   */\n      dup6\n        /* \"#utility.yul\":944:950   */\n      dup3\n        /* \"#utility.yul\":933:942   */\n      dup7\n        /* \"#utility.yul\":929:951   */\n      add\n        /* \"#utility.yul\":908:961   */\n      tag_76\n      jump\t// in\n    tag_88:\n        /* \"#utility.yul\":898:961   */\n      swap3\n      pop\n        /* \"#utility.yul\":854:971   */\n      pop\n        /* \"#utility.yul\":1010:1012   */\n      0x20\n        /* \"#utility.yul\":1036:1089   */\n      tag_89\n        /* \"#utility.yul\":1081:1088   */\n      dup6\n        /* \"#utility.yul\":1072:1078   */\n      dup3\n        /* \"#utility.yul\":1061:1070   */\n      dup7\n        /* \"#utility.yul\":1057:1079   */\n      add\n        /* \"#utility.yul\":1036:1089   */\n      tag_76\n      jump\t// in\n    tag_89:\n        /* \"#utility.yul\":1026:1089   */\n      swap2\n      pop\n        /* \"#utility.yul\":981:1099   */\n      pop\n        /* \"#utility.yul\":632:1106   */\n      swap3\n      pop\n      swap3\n      swap1\n      pop\n      jump\t// out\n        /* \"#utility.yul\":1112:1230   */\n    tag_90:\n        /* \"#utility.yul\":1199:1223   */\n      tag_92\n        /* \"#utility.yul\":1217:1222   */\n      dup2\n        /* \"#utility.yul\":1199:1223   */\n      tag_93\n      jump\t// in\n    tag_92:\n        /* \"#utility.yul\":1194:1197   */\n      dup3\n        /* \"#utility.yul\":1187:1224   */\n      mstore\n        /* \"#utility.yul\":1112:1230   */\n      pop\n      pop\n      jump\t// out\n        /* \"#utility.yul\":1236:1345   */\n    tag_94:\n        /* \"#utility.yul\":1317:1338   */\n      tag_96\n        /* \"#utility.yul\":1332:1337   */\n      dup2\n        /* \"#utility.yul\":1317:1338   */\n      tag_97\n      jump\t// in\n    tag_96:\n        /* \"#utility.yul\":1312:1315   */\n      dup3\n        /* \"#utility.yul\":1305:1339   */\n      mstore\n        /* \"#utility.yul\":1236:1345   */\n      pop\n      pop\n      jump\t// out\n        /* \"#utility.yul\":1351:1717   */\n    tag_98:\n        /* \"#utility.yul\":1493:1496   */\n      0x00\n        /* \"#utility.yul\":1514:1581   */\n      tag_100\n        /* \"#utility.yul\":1578:1580   */\n      0x15\n        /* \"#utility.yul\":1573:1576   */\n      dup4\n        /* \"#utility.yul\":1514:1581   */\n      tag_101\n      jump\t// in\n    tag_100:\n        /* \"#utility.yul\":1507:1581   */\n      swap2\n      pop\n        /* \"#utility.yul\":1590:1683   */\n      tag_102\n        /* \"#utility.yul\":1679:1682   */\n      dup3\n        /* \"#utility.yul\":1590:1683   */\n      tag_103\n      jump\t// in\n    tag_102:\n        /* \"#utility.yul\":1708:1710   */\n      0x20\n        /* \"#utility.yul\":1703:1706   */\n      dup3\n        /* \"#utility.yul\":1699:1711   */\n      add\n        /* \"#utility.yul\":1692:1711   */\n      swap1\n      pop\n        /* \"#utility.yul\":1351:1717   */\n      swap2\n      swap1\n      pop\n      jump\t// out\n        /* \"#utility.yul\":1723:2089   */\n    tag_104:\n        /* \"#utility.yul\":1865:1868   */\n      0x00\n        /* \"#utility.yul\":1886:1953   */\n      tag_106\n        /* \"#utility.yul\":1950:1952   */\n      0x22\n        /* \"#utility.yul\":1945:1948   */\n      dup4\n        /* \"#utility.yul\":1886:1953   */\n      tag_101\n      jump\t// in\n    tag_106:\n        /* \"#utility.yul\":1879:1953   */\n      swap2\n      pop\n        /* \"#utility.yul\":1962:2055   */\n      tag_107\n        /* \"#utility.yul\":2051:2054   */\n      dup3\n        /* \"#utility.yul\":1962:2055   */\n      tag_108\n      jump\t// in\n    tag_107:\n        /* \"#utility.yul\":2080:2082   */\n      0x40\n        /* \"#utility.yul\":2075:2078   */\n      dup3\n        /* \"#utility.yul\":2071:2083   */\n      add\n        /* \"#utility.yul\":2064:2083   */\n      swap1\n      pop\n        /* \"#utility.yul\":1723:2089   */\n      swap2\n      swap1\n      pop\n      jump\t// out\n        /* \"#utility.yul\":2095:2461   */\n    tag_109:\n        /* \"#utility.yul\":2237:2240   */\n      0x00\n        /* \"#utility.yul\":2258:2325   */\n      tag_111\n        /* \"#utility.yul\":2322:2324   */\n      0x14\n        /* \"#utility.yul\":2317:2320   */\n      dup4\n        /* \"#utility.yul\":2258:2325   */\n      tag_101\n      jump\t// in\n    tag_111:\n        /* \"#utility.yul\":2251:2325   */\n      swap2\n      pop\n        /* \"#utility.yul\":2334:2427   */\n      tag_112\n        /* \"#utility.yul\":2423:2426   */\n      dup3\n        /* \"#utility.yul\":2334:2427   */\n      tag_113\n      jump\t// in\n    tag_112:\n        /* \"#utility.yul\":2452:2454   */\n      0x20\n        /* \"#utility.yul\":2447:2450   */\n      dup3\n        /* \"#utility.yul\":2443:2455   */\n      add\n        /* \"#utility.yul\":2436:2455   */\n      swap1\n      pop\n        /* \"#utility.yul\":2095:2461   */\n      swap2\n      swap1\n      pop\n      jump\t// out\n        /* \"#utility.yul\":2467:2585   */\n    tag_114:\n        /* \"#utility.yul\":2554:2578   */\n      tag_116\n        /* \"#utility.yul\":2572:2577   */\n      dup2\n        /* \"#utility.yul\":2554:2578   */\n      tag_117\n      jump\t// in\n    tag_116:\n        /* \"#utility.yul\":2549:2552   */\n      dup3\n        /* \"#utility.yul\":2542:2579   */\n      mstore\n        /* \"#utility.yul\":2467:2585   */\n      pop\n      pop\n      jump\t// out\n        /* \"#utility.yul\":2591:2923   */\n    tag_65:\n        /* \"#utility.yul\":2712:2716   */\n      0x00\n        /* \"#utility.yul\":2750:2752   */\n      0x40\n        /* \"#utility.yul\":2739:2748   */\n      dup3\n        /* \"#utility.yul\":2735:2753   */\n      add\n        /* \"#utility.yul\":2727:2753   */\n      swap1\n      pop\n        /* \"#utility.yul\":2763:2834   */\n      tag_119\n        /* \"#utility.yul\":2831:2832   */\n      0x00\n        /* \"#utility.yul\":2820:2829   */\n      dup4\n        /* \"#utility.yul\":2816:2833   */\n      add\n        /* \"#utility.yul\":2807:2813   */\n      dup6\n        /* \"#utility.yul\":2763:2834   */\n      tag_90\n      jump\t// in\n    tag_119:\n        /* \"#utility.yul\":2844:2916   */\n      tag_120\n        /* \"#utility.yul\":2912:2914   */\n      0x20\n        /* \"#utility.yul\":2901:2910   */\n      dup4\n        /* \"#utility.yul\":2897:2915   */\n      add\n        /* \"#utility.yul\":2888:2894   */\n      dup5\n        /* \"#utility.yul\":2844:2916   */\n      tag_114\n      jump\t// in\n    tag_120:\n        /* \"#utility.yul\":2591:2923   */\n      swap4\n      swap3\n      pop\n      pop\n      pop\n      jump\t// out\n        /* \"#utility.yul\":2929:3348   */\n    tag_22:\n        /* \"#utility.yul\":3095:3099   */\n      0x00\n        /* \"#utility.yul\":3133:3135   */\n      0x20\n        /* \"#utility.yul\":3122:3131   */\n      dup3\n        /* \"#utility.yul\":3118:3136   */\n      add\n        /* \"#utility.yul\":3110:3136   */\n      swap1\n      pop\n        /* \"#utility.yul\":3182:3191   */\n      dup2\n        /* \"#utility.yul\":3176:3180   */\n      dup2\n        /* \"#utility.yul\":3172:3192   */\n      sub\n        /* \"#utility.yul\":3168:3169   */\n      0x00\n        /* \"#utility.yul\":3157:3166   */\n      dup4\n        /* \"#utility.yul\":3153:3170   */\n      add\n        /* \"#utility.yul\":3146:3193   */\n      mstore\n        /* \"#utility.yul\":3210:3341   */\n      tag_122\n        /* \"#utility.yul\":3336:3340   */\n      dup2\n        /* \"#utility.yul\":3210:3341   */\n      tag_98\n      jump\t// in\n    tag_122:\n        /* \"#utility.yul\":3202:3341   */\n      swap1\n      pop\n        /* \"#utility.yul\":2929:3348   */\n      swap2\n      swap1\n      pop\n      jump\t// out\n        /* \"#utility.yul\":3354:3773   */\n    tag_25:\n        /* \"#utility.yul\":3520:3524   */\n      0x00\n        /* \"#utility.yul\":3558:3560   */\n      0x20\n        /* \"#utility.yul\":3547:3556   */\n      dup3\n        /* \"#utility.yul\":3543:3561   */\n      add\n        /* \"#utility.yul\":3535:3561   */\n      swap1\n      pop\n        /* \"#utility.yul\":3607:3616   */\n      dup2\n        /* \"#utility.yul\":3601:3605   */\n      dup2\n        /* \"#utility.yul\":3597:3617   */\n      sub\n        /* \"#utility.yul\":3593:3594   */\n      0x00\n        /* \"#utility.yul\":3582:3591   */\n      dup4\n        /* \"#utility.yul\":3578:3595   */\n      add\n        /* \"#utility.yul\":3571:3618   */\n      mstore\n        /* \"#utility.yul\":3635:3766   */\n      tag_124\n        /* \"#utility.yul\":3761:3765   */\n      dup2\n        /* \"#utility.yul\":3635:3766   */\n      tag_104\n      jump\t// in\n    tag_124:\n        /* \"#utility.yul\":3627:3766   */\n      swap1\n      pop\n        /* \"#utility.yul\":3354:3773   */\n      swap2\n      swap1\n      pop\n      jump\t// out\n        /* \"#utility.yul\":3779:4198   */\n    tag_32:\n        /* \"#utility.yul\":3945:3949   */\n      0x00\n        /* \"#utility.yul\":3983:3985   */\n      0x20\n        /* \"#utility.yul\":3972:3981   */\n      dup3\n        /* \"#utility.yul\":3968:3986   */\n      add\n        /* \"#utility.yul\":3960:3986   */\n      swap1\n      pop\n        /* \"#utility.yul\":4032:4041   */\n      dup2\n        /* \"#utility.yul\":4026:4030   */\n      dup2\n        /* \"#utility.yul\":4022:4042   */\n      sub\n        /* \"#utility.yul\":4018:4019   */\n      0x00\n        /* \"#utility.yul\":4007:4016   */\n      dup4\n        /* \"#utility.yul\":4003:4020   */\n      add\n        /* \"#utility.yul\":3996:4043   */\n      mstore\n        /* \"#utility.yul\":4060:4191   */\n      tag_126\n        /* \"#utility.yul\":4186:4190   */\n      dup2\n        /* \"#utility.yul\":4060:4191   */\n      tag_109\n      jump\t// in\n    tag_126:\n        /* \"#utility.yul\":4052:4191   */\n      swap1\n      pop\n        /* \"#utility.yul\":3779:4198   */\n      swap2\n      swap1\n      pop\n      jump\t// out\n        /* \"#utility.yul\":4204:4844   */\n    tag_15:\n        /* \"#utility.yul\":4397:4401   */\n      0x00\n        /* \"#utility.yul\":4435:4438   */\n      0xa0\n        /* \"#utility.yul\":4424:4433   */\n      dup3\n        /* \"#utility.yul\":4420:4439   */\n      add\n        /* \"#utility.yul\":4412:4439   */\n      swap1\n      pop\n        /* \"#utility.yul\":4449:4520   */\n      tag_128\n        /* \"#utility.yul\":4517:4518   */\n      0x00\n        /* \"#utility.yul\":4506:4515   */\n      dup4\n        /* \"#utility.yul\":4502:4519   */\n      add\n        /* \"#utility.yul\":4493:4499   */\n      dup9\n        /* \"#utility.yul\":4449:4520   */\n      tag_114\n      jump\t// in\n    tag_128:\n        /* \"#utility.yul\":4530:4602   */\n      tag_129\n        /* \"#utility.yul\":4598:4600   */\n      0x20\n        /* \"#utility.yul\":4587:4596   */\n      dup4\n        /* \"#utility.yul\":4583:4601   */\n      add\n        /* \"#utility.yul\":4574:4580   */\n      dup8\n        /* \"#utility.yul\":4530:4602   */\n      tag_114\n      jump\t// in\n    tag_129:\n        /* \"#utility.yul\":4612:4678   */\n      tag_130\n        /* \"#utility.yul\":4674:4676   */\n      0x40\n        /* \"#utility.yul\":4663:4672   */\n      dup4\n        /* \"#utility.yul\":4659:4677   */\n      add\n        /* \"#utility.yul\":4650:4656   */\n      dup7\n        /* \"#utility.yul\":4612:4678   */\n      tag_94\n      jump\t// in\n    tag_130:\n        /* \"#utility.yul\":4688:4760   */\n      tag_131\n        /* \"#utility.yul\":4756:4758   */\n      0x60\n        /* \"#utility.yul\":4745:4754   */\n      dup4\n        /* \"#utility.yul\":4741:4759   */\n      add\n        /* \"#utility.yul\":4732:4738   */\n      dup6\n        /* \"#utility.yul\":4688:4760   */\n      tag_114\n      jump\t// in\n    tag_131:\n        /* \"#utility.yul\":4770:4837   */\n      tag_132\n        /* \"#utility.yul\":4832:4835   */\n      0x80\n        /* \"#utility.yul\":4821:4830   */\n      dup4\n        /* \"#utility.yul\":4817:4836   */\n      add\n        /* \"#utility.yul\":4808:4814   */\n      dup5\n        /* \"#utility.yul\":4770:4837   */\n      tag_94\n      jump\t// in\n    tag_132:\n        /* \"#utility.yul\":4204:4844   */\n      swap7\n      swap6\n      pop\n      pop\n      pop\n      pop\n      pop\n      pop\n      jump\t// out\n        /* \"#utility.yul\":4931:5100   */\n    tag_101:\n        /* \"#utility.yul\":5015:5026   */\n      0x00\n        /* \"#utility.yul\":5049:5055   */\n      dup3\n        /* \"#utility.yul\":5044:5047   */\n      dup3\n        /* \"#utility.yul\":5037:5056   */\n      mstore\n        /* \"#utility.yul\":5089:5093   */\n      0x20\n        /* \"#utility.yul\":5084:5087   */\n      dup3\n        /* \"#utility.yul\":5080:5094   */\n      add\n        /* \"#utility.yul\":5065:5094   */\n      swap1\n      pop\n        /* \"#utility.yul\":4931:5100   */\n      swap3\n      swap2\n      pop\n      pop\n      jump\t// out\n        /* \"#utility.yul\":5106:5411   */\n    tag_62:\n        /* \"#utility.yul\":5146:5149   */\n      0x00\n        /* \"#utility.yul\":5165:5185   */\n      tag_137\n        /* \"#utility.yul\":5183:5184   */\n      dup3\n        /* \"#utility.yul\":5165:5185   */\n      tag_117\n      jump\t// in\n    tag_137:\n        /* \"#utility.yul\":5160:5185   */\n      swap2\n      pop\n        /* \"#utility.yul\":5199:5219   */\n      tag_138\n        /* \"#utility.yul\":5217:5218   */\n      dup4\n        /* \"#utility.yul\":5199:5219   */\n      tag_117\n      jump\t// in\n    tag_138:\n        /* \"#utility.yul\":5194:5219   */\n      swap3\n      pop\n        /* \"#utility.yul\":5353:5354   */\n      dup3\n        /* \"#utility.yul\":5285:5351   */\n      0xffffffffffffffffffffffffffffffffffffffffffffffffffffffffffffffff\n        /* \"#utility.yul\":5281:5355   */\n      sub\n        /* \"#utility.yul\":5278:5279   */\n      dup3\n        /* \"#utility.yul\":5275:5356   */\n      gt\n        /* \"#utility.yul\":5272:5379   */\n      iszero\n      tag_139\n      jumpi\n        /* \"#utility.yul\":5359:5377   */\n      tag_140\n      tag_141\n      jump\t// in\n    tag_140:\n        /* \"#utility.yul\":5272:5379   */\n    tag_139:\n        /* \"#utility.yul\":5403:5404   */\n      dup3\n        /* \"#utility.yul\":5400:5401   */\n      dup3\n        /* \"#utility.yul\":5396:5405   */\n      add\n        /* \"#utility.yul\":5389:5405   */\n      swap1\n      pop\n        /* \"#utility.yul\":5106:5411   */\n      swap3\n      swap2\n      pop\n      pop\n      jump\t// out\n        /* \"#utility.yul\":5417:5765   */\n    tag_60:\n        /* \"#utility.yul\":5457:5464   */\n      0x00\n        /* \"#utility.yul\":5480:5500   */\n      tag_143\n        /* \"#utility.yul\":5498:5499   */\n      dup3\n        /* \"#utility.yul\":5480:5500   */\n      tag_117\n      jump\t// in\n    tag_143:\n        /* \"#utility.yul\":5475:5500   */\n      swap2\n      pop\n        /* \"#utility.yul\":5514:5534   */\n      tag_144\n        /* \"#utility.yul\":5532:5533   */\n      dup4\n        /* \"#utility.yul\":5514:5534   */\n      tag_117\n      jump\t// in\n    tag_144:\n        /* \"#utility.yul\":5509:5534   */\n      swap3\n      pop\n        /* \"#utility.yul\":5702:5703   */\n      dup2\n        /* \"#utility.yul\":5634:5700   */\n      0xffffffffffffffffffffffffffffffffffffffffffffffffffffffffffffffff\n        /* \"#utility.yul\":5630:5704   */\n      div\n        /* \"#utility.yul\":5627:5628   */\n      dup4\n        /* \"#utility.yul\":5624:5705   */\n      gt\n        /* \"#utility.yul\":5619:5620   */\n      dup3\n        /* \"#utility.yul\":5612:5621   */\n      iszero\n        /* \"#utility.yul\":5605:5622   */\n      iszero\n        /* \"#utility.yul\":5601:5706   */\n      and\n        /* \"#utility.yul\":5598:5729   */\n      iszero\n      tag_145\n      jumpi\n        /* \"#utility.yul\":5709:5727   */\n      tag_146\n      tag_141\n      jump\t// in\n    tag_146:\n        /* \"#utility.yul\":5598:5729   */\n    tag_145:\n        /* \"#utility.yul\":5757:5758   */\n      dup3\n        /* \"#utility.yul\":5754:5755   */\n      dup3\n        /* \"#utility.yul\":5750:5759   */\n      mul\n        /* \"#utility.yul\":5739:5759   */\n      swap1\n      pop\n        /* \"#utility.yul\":5417:5765   */\n      swap3\n      swap2\n      pop\n      pop\n      jump\t// out\n        /* \"#utility.yul\":5771:5962   */\n    tag_27:\n        /* \"#utility.yul\":5811:5815   */\n      0x00\n        /* \"#utility.yul\":5831:5851   */\n      tag_148\n        /* \"#utility.yul\":5849:5850   */\n      dup3\n        /* \"#utility.yul\":5831:5851   */\n      tag_117\n      jump\t// in\n    tag_148:\n        /* \"#utility.yul\":5826:5851   */\n      swap2\n      pop\n        /* \"#utility.yul\":5865:5885   */\n      tag_149\n        /* \"#utility.yul\":5883:5884   */\n      dup4\n        /* \"#utility.yul\":5865:5885   */\n      tag_117\n      jump\t// in\n    tag_149:\n        /* \"#utility.yul\":5860:5885   */\n      swap3\n      pop\n        /* \"#utility.yul\":5904:5905   */\n      dup3\n        /* \"#utility.yul\":5901:5902   */\n      dup3\n        /* \"#utility.yul\":5898:5906   */\n      lt\n        /* \"#utility.yul\":5895:5929   */\n      iszero\n      tag_150\n      jumpi\n        /* \"#utility.yul\":5909:5927   */\n      tag_151\n      tag_141\n      jump\t// in\n    tag_151:\n        /* \"#utility.yul\":5895:5929   */\n    tag_150:\n        /* \"#utility.yul\":5954:5955   */\n      dup3\n        /* \"#utility.yul\":5951:5952   */\n      dup3\n        /* \"#utility.yul\":5947:5956   */\n      sub\n        /* \"#utility.yul\":5939:5956   */\n      swap1\n      pop\n        /* \"#utility.yul\":5771:5962   */\n      swap3\n      swap2\n      pop\n      pop\n      jump\t// out\n        /* \"#utility.yul\":5968:6064   */\n    tag_93:\n        /* \"#utility.yul\":6005:6012   */\n      0x00\n        /* \"#utility.yul\":6034:6058   */\n      tag_153\n        /* \"#utility.yul\":6052:6057   */\n      dup3\n        /* \"#utility.yul\":6034:6058   */\n      tag_154\n      jump\t// in\n    tag_153:\n        /* \"#utility.yul\":6023:6058   */\n      swap1\n      pop\n        /* \"#utility.yul\":5968:6064   */\n      swap2\n      swap1\n      pop\n      jump\t// out\n        /* \"#utility.yul\":6070:6160   */\n    tag_97:\n        /* \"#utility.yul\":6104:6111   */\n      0x00\n        /* \"#utility.yul\":6147:6152   */\n      dup2\n        /* \"#utility.yul\":6140:6153   */\n      iszero\n        /* \"#utility.yul\":6133:6154   */\n      iszero\n        /* \"#utility.yul\":6122:6154   */\n      swap1\n      pop\n        /* \"#utility.yul\":6070:6160   */\n      swap2\n      swap1\n      pop\n      jump\t// out\n        /* \"#utility.yul\":6166:6292   */\n    tag_154:\n        /* \"#utility.yul\":6203:6210   */\n      0x00\n        /* \"#utility.yul\":6243:6285   */\n      0xffffffffffffffffffffffffffffffffffffffff\n        /* \"#utility.yul\":6236:6241   */\n      dup3\n        /* \"#utility.yul\":6232:6286   */\n      and\n        /* \"#utility.yul\":6221:6286   */\n      swap1\n      pop\n        /* \"#utility.yul\":6166:6292   */\n      swap2\n      swap1\n      pop\n      jump\t// out\n        /* \"#utility.yul\":6298:6375   */\n    tag_117:\n        /* \"#utility.yul\":6335:6342   */\n      0x00\n        /* \"#utility.yul\":6364:6369   */\n      dup2\n        /* \"#utility.yul\":6353:6369   */\n      swap1\n      pop\n        /* \"#utility.yul\":6298:6375   */\n      swap2\n      swap1\n      pop\n      jump\t// out\n        /* \"#utility.yul\":6381:6614   */\n    tag_48:\n        /* \"#utility.yul\":6420:6423   */\n      0x00\n        /* \"#utility.yul\":6443:6467   */\n      tag_159\n        /* \"#utility.yul\":6461:6466   */\n      dup3\n        /* \"#utility.yul\":6443:6467   */\n      tag_117\n      jump\t// in\n    tag_159:\n        /* \"#utility.yul\":6434:6467   */\n      swap2\n      pop\n        /* \"#utility.yul\":6489:6555   */\n      0xffffffffffffffffffffffffffffffffffffffffffffffffffffffffffffffff\n        /* \"#utility.yul\":6482:6487   */\n      dup3\n        /* \"#utility.yul\":6479:6556   */\n      eq\n        /* \"#utility.yul\":6476:6579   */\n      iszero\n      tag_160\n      jumpi\n        /* \"#utility.yul\":6559:6577   */\n      tag_161\n      tag_141\n      jump\t// in\n    tag_161:\n        /* \"#utility.yul\":6476:6579   */\n    tag_160:\n        /* \"#utility.yul\":6606:6607   */\n      0x01\n        /* \"#utility.yul\":6599:6604   */\n      dup3\n        /* \"#utility.yul\":6595:6608   */\n      add\n        /* \"#utility.yul\":6588:6608   */\n      swap1\n      pop\n        /* \"#utility.yul\":6381:6614   */\n      swap2\n      swap1\n      pop\n      jump\t// out\n        /* \"#utility.yul\":6620:6796   */\n    tag_37:\n        /* \"#utility.yul\":6652:6653   */\n      0x00\n        /* \"#utility.yul\":6669:6689   */\n      tag_163\n        /* \"#utility.yul\":6687:6688   */\n      dup3\n        /* \"#utility.yul\":6669:6689   */\n      tag_117\n      jump\t// in\n    tag_163:\n        /* \"#utility.yul\":6664:6689   */\n      swap2\n      pop\n        /* \"#utility.yul\":6703:6723   */\n      tag_164\n        /* \"#utility.yul\":6721:6722   */\n      dup4\n        /* \"#utility.yul\":6703:6723   */\n      tag_117\n      jump\t// in\n    tag_164:\n        /* \"#utility.yul\":6698:6723   */\n      swap3\n      pop\n        /* \"#utility.yul\":6742:6743   */\n      dup3\n        /* \"#utility.yul\":6732:6767   */\n      tag_165\n      jumpi\n        /* \"#utility.yul\":6747:6765   */\n      tag_166\n      tag_167\n      jump\t// in\n    tag_166:\n        /* \"#utility.yul\":6732:6767   */\n    tag_165:\n        /* \"#utility.yul\":6788:6789   */\n      dup3\n        /* \"#utility.yul\":6785:6786   */\n      dup3\n        /* \"#utility.yul\":6781:6790   */\n      mod\n        /* \"#utility.yul\":6776:6790   */\n      swap1\n      pop\n        /* \"#utility.yul\":6620:6796   */\n      swap3\n      swap2\n      pop\n      pop\n      jump\t// out\n        /* \"#utility.yul\":6802:6982   */\n    tag_141:\n        /* \"#utility.yul\":6850:6927   */\n      0x4e487b7100000000000000000000000000000000000000000000000000000000\n        /* \"#utility.yul\":6847:6848   */\n      0x00\n        /* \"#utility.yul\":6840:6928   */\n      mstore\n        /* \"#utility.yul\":6947:6951   */\n      0x11\n        /* \"#utility.yul\":6944:6945   */\n      0x04\n        /* \"#utility.yul\":6937:6952   */\n      mstore\n        /* \"#utility.yul\":6971:6975   */\n      0x24\n        /* \"#utility.yul\":6968:6969   */\n      0x00\n        /* \"#utility.yul\":6961:6976   */\n      revert\n        /* \"#utility.yul\":6988:7168   */\n    tag_167:\n        /* \"#utility.yul\":7036:7113   */\n      0x4e487b7100000000000000000000000000000000000000000000000000000000\n        /* \"#utility.yul\":7033:7034   */\n      0x00\n        /* \"#utility.yul\":7026:7114   */\n      mstore\n        /* \"#utility.yul\":7133:7137   */\n      0x12\n        /* \"#utility.yul\":7130:7131   */\n      0x04\n        /* \"#utility.yul\":7123:7138   */\n      mstore\n        /* \"#utility.yul\":7157:7161   */\n      0x24\n        /* \"#utility.yul\":7154:7155   */\n      0x00\n        /* \"#utility.yul\":7147:7162   */\n      revert\n        /* \"#utility.yul\":7174:7354   */\n    tag_44:\n        /* \"#utility.yul\":7222:7299   */\n      0x4e487b7100000000000000000000000000000000000000000000000000000000\n        /* \"#utility.yul\":7219:7220   */\n      0x00\n        /* \"#utility.yul\":7212:7300   */\n      mstore\n        /* \"#utility.yul\":7319:7323   */\n      0x32\n        /* \"#utility.yul\":7316:7317   */\n      0x04\n        /* \"#utility.yul\":7309:7324   */\n      mstore\n        /* \"#utility.yul\":7343:7347   */\n      0x24\n        /* \"#utility.yul\":7340:7341   */\n      0x00\n        /* \"#utility.yul\":7333:7348   */\n      revert\n        /* \"#utility.yul\":7483:7600   */\n    tag_83:\n        /* \"#utility.yul\":7592:7593   */\n      0x00\n        /* \"#utility.yul\":7589:7590   */\n      dup1\n        /* \"#utility.yul\":7582:7594   */\n      revert\n        /* \"#utility.yul\":7606:7781   */\n    tag_103:\n        /* \"#utility.yul\":7746:7769   */\n      0x536f72727921204c6f772062616c616e6365203b280000000000000000000000\n        /* \"#utility.yul\":7742:7743   */\n      0x00\n        /* \"#utility.yul\":7734:7740   */\n      dup3\n        /* \"#utility.yul\":7730:7744   */\n      add\n        /* \"#utility.yul\":7723:7770   */\n      mstore\n        /* \"#utility.yul\":7606:7781   */\n      pop\n      jump\t// out\n        /* \"#utility.yul\":7791:8024   */\n    tag_108:\n        /* \"#utility.yul\":7935:7969   */\n      0x596f7520616c7265616479206861766520616e204f6e676f696e672042657420\n        /* \"#utility.yul\":7931:7932   */\n      0x00\n        /* \"#utility.yul\":7923:7929   */\n      dup3\n        /* \"#utility.yul\":7919:7933   */\n      add\n        /* \"#utility.yul\":7912:7970   */\n      mstore\n        /* \"#utility.yul\":8008:8012   */\n      0x3a7c000000000000000000000000000000000000000000000000000000000000\n        /* \"#utility.yul\":8003:8005   */\n      0x20\n        /* \"#utility.yul\":7995:8001   */\n      dup3\n        /* \"#utility.yul\":7991:8006   */\n      add\n        /* \"#utility.yul\":7984:8013   */\n      mstore\n        /* \"#utility.yul\":7791:8024   */\n      pop\n      jump\t// out\n        /* \"#utility.yul\":8034:8212   */\n    tag_113:\n        /* \"#utility.yul\":8178:8200   */\n      0x496e766f6b6572206973206e6f74204f776e6572000000000000000000000000\n        /* \"#utility.yul\":8174:8175   */\n      0x00\n        /* \"#utility.yul\":8166:8172   */\n      dup3\n        /* \"#utility.yul\":8162:8176   */\n      add\n        /* \"#utility.yul\":8155:8201   */\n      mstore\n        /* \"#utility.yul\":8034:8212   */\n      pop\n      jump\t// out\n        /* \"#utility.yul\":8222:8352   */\n    tag_75:\n        /* \"#utility.yul\":8299:8323   */\n      tag_178\n        /* \"#utility.yul\":8317:8322   */\n      dup2\n        /* \"#utility.yul\":8299:8323   */\n      tag_93\n      jump\t// in\n    tag_178:\n        /* \"#utility.yul\":8292:8297   */\n      dup2\n        /* \"#utility.yul\":8289:8324   */\n      eq\n        /* \"#utility.yul\":8279:8342   */\n      tag_179\n      jumpi\n        /* \"#utility.yul\":8338:8339   */\n      0x00\n        /* \"#utility.yul\":8335:8336   */\n      dup1\n        /* \"#utility.yul\":8328:8340   */\n      revert\n        /* \"#utility.yul\":8279:8342   */\n    tag_179:\n        /* \"#utility.yul\":8222:8352   */\n      pop\n      jump\t// out\n        /* \"#utility.yul\":8362:8492   */\n    tag_79:\n        /* \"#utility.yul\":8439:8463   */\n      tag_181\n        /* \"#utility.yul\":8457:8462   */\n      dup2\n        /* \"#utility.yul\":8439:8463   */\n      tag_117\n      jump\t// in\n    tag_181:\n        /* \"#utility.yul\":8432:8437   */\n      dup2\n        /* \"#utility.yul\":8429:8464   */\n      eq\n        /* \"#utility.yul\":8419:8482   */\n      tag_182\n      jumpi\n        /* \"#utility.yul\":8478:8479   */\n      0x00\n        /* \"#utility.yul\":8475:8476   */\n      dup1\n        /* \"#utility.yul\":8468:8480   */\n      revert\n        /* \"#utility.yul\":8419:8482   */\n    tag_182:\n        /* \"#utility.yul\":8362:8492   */\n      pop\n      jump\t// out\n\n    auxdata: 0xa26469706673582212206bdcff2ee117b5bf2662f371c45e95f4bcba133a55dcfa147f11dbae14505ac364736f6c63430008070033\n}\n",
				"bytecode": {
					"linkReferences": {},
					"object": "608060405234801561001057600080fd5b50336000806101000a81548173ffffffffffffffffffffffffffffffffffffffff021916908373ffffffffffffffffffffffffffffffffffffffff16021790555060008054906101000a900473ffffffffffffffffffffffffffffffffffffffff1673ffffffffffffffffffffffffffffffffffffffff16600073ffffffffffffffffffffffffffffffffffffffff167f342827c97908e5e2f71151c08502a66d44b6f758e3ac2f1de95f02eb95f0a73560405160405180910390a3610daf806100db6000396000f3fe608060405234801561001057600080fd5b50600436106100415760003560e01c80634afe62b514610046578063a87430ba14610062578063dc7e462e14610096575b600080fd5b610060600480360381019061005b91906108af565b6100a0565b005b61007c60048036038101906100779190610882565b610464565b60405161008d959493929190610a0e565b60405180910390f35b61009e6104b4565b005b60001515600260003373ffffffffffffffffffffffffffffffffffffffff1673ffffffffffffffffffffffffffffffffffffffff16815260200190815260200160002060040160009054906101000a900460ff16151514156101a0576064600260003373ffffffffffffffffffffffffffffffffffffffff1673ffffffffffffffffffffffffffffffffffffffff168152602001908152602001600020600001819055506001600260003373ffffffffffffffffffffffffffffffffffffffff1673ffffffffffffffffffffffffffffffffffffffff16815260200190815260200160002060040160006101000a81548160ff0219169083151502179055505b600260003373ffffffffffffffffffffffffffffffffffffffff1673ffffffffffffffffffffffffffffffffffffffff16815260200190815260200160002060000154811115610225576040517f08c379a000000000000000000000000000000000000000000000000000000000815260040161021c906109ae565b60405180910390fd5b60001515600260003373ffffffffffffffffffffffffffffffffffffffff1673ffffffffffffffffffffffffffffffffffffffff16815260200190815260200160002060020160009054906101000a900460ff161515146102bb576040517f08c379a00000000000000000000000000000000000000000000000000000000081526004016102b2906109ce565b60405180910390fd5b80600260003373ffffffffffffffffffffffffffffffffffffffff1673ffffffffffffffffffffffffffffffffffffffff1681526020019081526020016000206001018190555080600260003373ffffffffffffffffffffffffffffffffffffffff1673ffffffffffffffffffffffffffffffffffffffff16815260200190815260200160002060000160008282546103549190610b22565b925050819055506001600260003373ffffffffffffffffffffffffffffffffffffffff1673ffffffffffffffffffffffffffffffffffffffff16815260200190815260200160002060020160006101000a81548160ff02191690831515021790555081600260003373ffffffffffffffffffffffffffffffffffffffff1673ffffffffffffffffffffffffffffffffffffffff168152602001908152602001600020600301819055506001339080600181540180825580915050600190039060005260206000200160009091909190916101000a81548173ffffffffffffffffffffffffffffffffffffffff021916908373ffffffffffffffffffffffffffffffffffffffff1602179055505050565b60026020528060005260406000206000915090508060000154908060010154908060020160009054906101000a900460ff16908060030154908060040160009054906101000a900460ff16905085565b60008054906101000a900473ffffffffffffffffffffffffffffffffffffffff1673ffffffffffffffffffffffffffffffffffffffff163373ffffffffffffffffffffffffffffffffffffffff1614610542576040517f08c379a0000000000000000000000000000000000000000000000000000000008152600401610539906109ee565b60405180910390fd5b6000600261054e6105da565b60001c61055b9190610be7565b905060005b6001805490508110156105c8576105b56001828154811061058457610583610c76565b5b9060005260206000200160009054906101000a900473ffffffffffffffffffffffffffffffffffffffff1683610620565b80806105c090610b9e565b915050610560565b50600160006105d791906107f8565b50565b60006105e4610819565b43816000600181106105f9576105f8610c76565b5b60200201818152505060405160208160208460ff600019fa61061757fe5b80519250505090565b80600260008473ffffffffffffffffffffffffffffffffffffffff1673ffffffffffffffffffffffffffffffffffffffff16815260200190815260200160002060030154141561079957600260008373ffffffffffffffffffffffffffffffffffffffff1673ffffffffffffffffffffffffffffffffffffffff1681526020019081526020016000206001015460026106b99190610ac8565b600260008473ffffffffffffffffffffffffffffffffffffffff1673ffffffffffffffffffffffffffffffffffffffff168152602001908152602001600020600001600082825461070a9190610a72565b925050819055507f9c2270628a9b29d30ae96b6c4c14ed646ee134febdce38a5b77f2bde9cea2e2082600260008573ffffffffffffffffffffffffffffffffffffffff1673ffffffffffffffffffffffffffffffffffffffff1681526020019081526020016000206001015460026107829190610ac8565b604051610790929190610985565b60405180910390a15b6000600260008473ffffffffffffffffffffffffffffffffffffffff1673ffffffffffffffffffffffffffffffffffffffff16815260200190815260200160002060020160006101000a81548160ff0219169083151502179055505050565b5080546000825590600052602060002090810190610816919061083b565b50565b6040518060200160405280600190602082028036833780820191505090505090565b5b8082111561085457600081600090555060010161083c565b5090565b60008135905061086781610d4b565b92915050565b60008135905061087c81610d62565b92915050565b60006020828403121561089857610897610ca5565b5b60006108a684828501610858565b91505092915050565b600080604083850312156108c6576108c5610ca5565b5b60006108d48582860161086d565b92505060206108e58582860161086d565b9150509250929050565b6108f881610b56565b82525050565b61090781610b68565b82525050565b600061091a601583610a61565b915061092582610caa565b602082019050919050565b600061093d602283610a61565b915061094882610cd3565b604082019050919050565b6000610960601483610a61565b915061096b82610d22565b602082019050919050565b61097f81610b94565b82525050565b600060408201905061099a60008301856108ef565b6109a76020830184610976565b9392505050565b600060208201905081810360008301526109c78161090d565b9050919050565b600060208201905081810360008301526109e781610930565b9050919050565b60006020820190508181036000830152610a0781610953565b9050919050565b600060a082019050610a236000830188610976565b610a306020830187610976565b610a3d60408301866108fe565b610a4a6060830185610976565b610a5760808301846108fe565b9695505050505050565b600082825260208201905092915050565b6000610a7d82610b94565b9150610a8883610b94565b9250827fffffffffffffffffffffffffffffffffffffffffffffffffffffffffffffffff03821115610abd57610abc610c18565b5b828201905092915050565b6000610ad382610b94565b9150610ade83610b94565b9250817fffffffffffffffffffffffffffffffffffffffffffffffffffffffffffffffff0483118215151615610b1757610b16610c18565b5b828202905092915050565b6000610b2d82610b94565b9150610b3883610b94565b925082821015610b4b57610b4a610c18565b5b828203905092915050565b6000610b6182610b74565b9050919050565b60008115159050919050565b600073ffffffffffffffffffffffffffffffffffffffff82169050919050565b6000819050919050565b6000610ba982610b94565b91507fffffffffffffffffffffffffffffffffffffffffffffffffffffffffffffffff821415610bdc57610bdb610c18565b5b600182019050919050565b6000610bf282610b94565b9150610bfd83610b94565b925082610c0d57610c0c610c47565b5b828206905092915050565b7f4e487b7100000000000000000000000000000000000000000000000000000000600052601160045260246000fd5b7f4e487b7100000000000000000000000000000000000000000000000000000000600052601260045260246000fd5b7f4e487b7100000000000000000000000000000000000000000000000000000000600052603260045260246000fd5b600080fd5b7f536f72727921204c6f772062616c616e6365203b280000000000000000000000600082015250565b7f596f7520616c7265616479206861766520616e204f6e676f696e67204265742060008201527f3a7c000000000000000000000000000000000000000000000000000000000000602082015250565b7f496e766f6b6572206973206e6f74204f776e6572000000000000000000000000600082015250565b610d5481610b56565b8114610d5f57600080fd5b50565b610d6b81610b94565b8114610d7657600080fd5b5056fea26469706673582212206bdcff2ee117b5bf2662f371c45e95f4bcba133a55dcfa147f11dbae14505ac364736f6c63430008070033",
					"opcodes": "PUSH1 0x80 PUSH1 0x40 MSTORE CALLVALUE DUP1 ISZERO PUSH2 0x10 JUMPI PUSH1 0x0 DUP1 REVERT JUMPDEST POP CALLER PUSH1 0x0 DUP1 PUSH2 0x100 EXP DUP2 SLOAD DUP2 PUSH20 0xFFFFFFFFFFFFFFFFFFFFFFFFFFFFFFFFFFFFFFFF MUL NOT AND SWAP1 DUP4 PUSH20 0xFFFFFFFFFFFFFFFFFFFFFFFFFFFFFFFFFFFFFFFF AND MUL OR SWAP1 SSTORE POP PUSH1 0x0 DUP1 SLOAD SWAP1 PUSH2 0x100 EXP SWAP1 DIV PUSH20 0xFFFFFFFFFFFFFFFFFFFFFFFFFFFFFFFFFFFFFFFF AND PUSH20 0xFFFFFFFFFFFFFFFFFFFFFFFFFFFFFFFFFFFFFFFF AND PUSH1 0x0 PUSH20 0xFFFFFFFFFFFFFFFFFFFFFFFFFFFFFFFFFFFFFFFF AND PUSH32 0x342827C97908E5E2F71151C08502A66D44B6F758E3AC2F1DE95F02EB95F0A735 PUSH1 0x40 MLOAD PUSH1 0x40 MLOAD DUP1 SWAP2 SUB SWAP1 LOG3 PUSH2 0xDAF DUP1 PUSH2 0xDB PUSH1 0x0 CODECOPY PUSH1 0x0 RETURN INVALID PUSH1 0x80 PUSH1 0x40 MSTORE CALLVALUE DUP1 ISZERO PUSH2 0x10 JUMPI PUSH1 0x0 DUP1 REVERT JUMPDEST POP PUSH1 0x4 CALLDATASIZE LT PUSH2 0x41 JUMPI PUSH1 0x0 CALLDATALOAD PUSH1 0xE0 SHR DUP1 PUSH4 0x4AFE62B5 EQ PUSH2 0x46 JUMPI DUP1 PUSH4 0xA87430BA EQ PUSH2 0x62 JUMPI DUP1 PUSH4 0xDC7E462E EQ PUSH2 0x96 JUMPI JUMPDEST PUSH1 0x0 DUP1 REVERT JUMPDEST PUSH2 0x60 PUSH1 0x4 DUP1 CALLDATASIZE SUB DUP2 ADD SWAP1 PUSH2 0x5B SWAP2 SWAP1 PUSH2 0x8AF JUMP JUMPDEST PUSH2 0xA0 JUMP JUMPDEST STOP JUMPDEST PUSH2 0x7C PUSH1 0x4 DUP1 CALLDATASIZE SUB DUP2 ADD SWAP1 PUSH2 0x77 SWAP2 SWAP1 PUSH2 0x882 JUMP JUMPDEST PUSH2 0x464 JUMP JUMPDEST PUSH1 0x40 MLOAD PUSH2 0x8D SWAP6 SWAP5 SWAP4 SWAP3 SWAP2 SWAP1 PUSH2 0xA0E JUMP JUMPDEST PUSH1 0x40 MLOAD DUP1 SWAP2 SUB SWAP1 RETURN JUMPDEST PUSH2 0x9E PUSH2 0x4B4 JUMP JUMPDEST STOP JUMPDEST PUSH1 0x0 ISZERO ISZERO PUSH1 0x2 PUSH1 0x0 CALLER PUSH20 0xFFFFFFFFFFFFFFFFFFFFFFFFFFFFFFFFFFFFFFFF AND PUSH20 0xFFFFFFFFFFFFFFFFFFFFFFFFFFFFFFFFFFFFFFFF AND DUP2 MSTORE PUSH1 0x20 ADD SWAP1 DUP2 MSTORE PUSH1 0x20 ADD PUSH1 0x0 KECCAK256 PUSH1 0x4 ADD PUSH1 0x0 SWAP1 SLOAD SWAP1 PUSH2 0x100 EXP SWAP1 DIV PUSH1 0xFF AND ISZERO ISZERO EQ ISZERO PUSH2 0x1A0 JUMPI PUSH1 0x64 PUSH1 0x2 PUSH1 0x0 CALLER PUSH20 0xFFFFFFFFFFFFFFFFFFFFFFFFFFFFFFFFFFFFFFFF AND PUSH20 0xFFFFFFFFFFFFFFFFFFFFFFFFFFFFFFFFFFFFFFFF AND DUP2 MSTORE PUSH1 0x20 ADD SWAP1 DUP2 MSTORE PUSH1 0x20 ADD PUSH1 0x0 KECCAK256 PUSH1 0x0 ADD DUP2 SWAP1 SSTORE POP PUSH1 0x1 PUSH1 0x2 PUSH1 0x0 CALLER PUSH20 0xFFFFFFFFFFFFFFFFFFFFFFFFFFFFFFFFFFFFFFFF AND PUSH20 0xFFFFFFFFFFFFFFFFFFFFFFFFFFFFFFFFFFFFFFFF AND DUP2 MSTORE PUSH1 0x20 ADD SWAP1 DUP2 MSTORE PUSH1 0x20 ADD PUSH1 0x0 KECCAK256 PUSH1 0x4 ADD PUSH1 0x0 PUSH2 0x100 EXP DUP2 SLOAD DUP2 PUSH1 0xFF MUL NOT AND SWAP1 DUP4 ISZERO ISZERO MUL OR SWAP1 SSTORE POP JUMPDEST PUSH1 0x2 PUSH1 0x0 CALLER PUSH20 0xFFFFFFFFFFFFFFFFFFFFFFFFFFFFFFFFFFFFFFFF AND PUSH20 0xFFFFFFFFFFFFFFFFFFFFFFFFFFFFFFFFFFFFFFFF AND DUP2 MSTORE PUSH1 0x20 ADD SWAP1 DUP2 MSTORE PUSH1 0x20 ADD PUSH1 0x0 KECCAK256 PUSH1 0x0 ADD SLOAD DUP2 GT ISZERO PUSH2 0x225 JUMPI PUSH1 0x40 MLOAD PUSH32 0x8C379A000000000000000000000000000000000000000000000000000000000 DUP2 MSTORE PUSH1 0x4 ADD PUSH2 0x21C SWAP1 PUSH2 0x9AE JUMP JUMPDEST PUSH1 0x40 MLOAD DUP1 SWAP2 SUB SWAP1 REVERT JUMPDEST PUSH1 0x0 ISZERO ISZERO PUSH1 0x2 PUSH1 0x0 CALLER PUSH20 0xFFFFFFFFFFFFFFFFFFFFFFFFFFFFFFFFFFFFFFFF AND PUSH20 0xFFFFFFFFFFFFFFFFFFFFFFFFFFFFFFFFFFFFFFFF AND DUP2 MSTORE PUSH1 0x20 ADD SWAP1 DUP2 MSTORE PUSH1 0x20 ADD PUSH1 0x0 KECCAK256 PUSH1 0x2 ADD PUSH1 0x0 SWAP1 SLOAD SWAP1 PUSH2 0x100 EXP SWAP1 DIV PUSH1 0xFF AND ISZERO ISZERO EQ PUSH2 0x2BB JUMPI PUSH1 0x40 MLOAD PUSH32 0x8C379A000000000000000000000000000000000000000000000000000000000 DUP2 MSTORE PUSH1 0x4 ADD PUSH2 0x2B2 SWAP1 PUSH2 0x9CE JUMP JUMPDEST PUSH1 0x40 MLOAD DUP1 SWAP2 SUB SWAP1 REVERT JUMPDEST DUP1 PUSH1 0x2 PUSH1 0x0 CALLER PUSH20 0xFFFFFFFFFFFFFFFFFFFFFFFFFFFFFFFFFFFFFFFF AND PUSH20 0xFFFFFFFFFFFFFFFFFFFFFFFFFFFFFFFFFFFFFFFF AND DUP2 MSTORE PUSH1 0x20 ADD SWAP1 DUP2 MSTORE PUSH1 0x20 ADD PUSH1 0x0 KECCAK256 PUSH1 0x1 ADD DUP2 SWAP1 SSTORE POP DUP1 PUSH1 0x2 PUSH1 0x0 CALLER PUSH20 0xFFFFFFFFFFFFFFFFFFFFFFFFFFFFFFFFFFFFFFFF AND PUSH20 0xFFFFFFFFFFFFFFFFFFFFFFFFFFFFFFFFFFFFFFFF AND DUP2 MSTORE PUSH1 0x20 ADD SWAP1 DUP2 MSTORE PUSH1 0x20 ADD PUSH1 0x0 KECCAK256 PUSH1 0x0 ADD PUSH1 0x0 DUP3 DUP3 SLOAD PUSH2 0x354 SWAP2 SWAP1 PUSH2 0xB22 JUMP JUMPDEST SWAP3 POP POP DUP2 SWAP1 SSTORE POP PUSH1 0x1 PUSH1 0x2 PUSH1 0x0 CALLER PUSH20 0xFFFFFFFFFFFFFFFFFFFFFFFFFFFFFFFFFFFFFFFF AND PUSH20 0xFFFFFFFFFFFFFFFFFFFFFFFFFFFFFFFFFFFFFFFF AND DUP2 MSTORE PUSH1 0x20 ADD SWAP1 DUP2 MSTORE PUSH1 0x20 ADD PUSH1 0x0 KECCAK256 PUSH1 0x2 ADD PUSH1 0x0 PUSH2 0x100 EXP DUP2 SLOAD DUP2 PUSH1 0xFF MUL NOT AND SWAP1 DUP4 ISZERO ISZERO MUL OR SWAP1 SSTORE POP DUP2 PUSH1 0x2 PUSH1 0x0 CALLER PUSH20 0xFFFFFFFFFFFFFFFFFFFFFFFFFFFFFFFFFFFFFFFF AND PUSH20 0xFFFFFFFFFFFFFFFFFFFFFFFFFFFFFFFFFFFFFFFF AND DUP2 MSTORE PUSH1 0x20 ADD SWAP1 DUP2 MSTORE PUSH1 0x20 ADD PUSH1 0x0 KECCAK256 PUSH1 0x3 ADD DUP2 SWAP1 SSTORE POP PUSH1 0x1 CALLER SWAP1 DUP1 PUSH1 0x1 DUP2 SLOAD ADD DUP1 DUP3 SSTORE DUP1 SWAP2 POP POP PUSH1 0x1 SWAP1 SUB SWAP1 PUSH1 0x0 MSTORE PUSH1 0x20 PUSH1 0x0 KECCAK256 ADD PUSH1 0x0 SWAP1 SWAP2 SWAP1 SWAP2 SWAP1 SWAP2 PUSH2 0x100 EXP DUP2 SLOAD DUP2 PUSH20 0xFFFFFFFFFFFFFFFFFFFFFFFFFFFFFFFFFFFFFFFF MUL NOT AND SWAP1 DUP4 PUSH20 0xFFFFFFFFFFFFFFFFFFFFFFFFFFFFFFFFFFFFFFFF AND MUL OR SWAP1 SSTORE POP POP POP JUMP JUMPDEST PUSH1 0x2 PUSH1 0x20 MSTORE DUP1 PUSH1 0x0 MSTORE PUSH1 0x40 PUSH1 0x0 KECCAK256 PUSH1 0x0 SWAP2 POP SWAP1 POP DUP1 PUSH1 0x0 ADD SLOAD SWAP1 DUP1 PUSH1 0x1 ADD SLOAD SWAP1 DUP1 PUSH1 0x2 ADD PUSH1 0x0 SWAP1 SLOAD SWAP1 PUSH2 0x100 EXP SWAP1 DIV PUSH1 0xFF AND SWAP1 DUP1 PUSH1 0x3 ADD SLOAD SWAP1 DUP1 PUSH1 0x4 ADD PUSH1 0x0 SWAP1 SLOAD SWAP1 PUSH2 0x100 EXP SWAP1 DIV PUSH1 0xFF AND SWAP1 POP DUP6 JUMP JUMPDEST PUSH1 0x0 DUP1 SLOAD SWAP1 PUSH2 0x100 EXP SWAP1 DIV PUSH20 0xFFFFFFFFFFFFFFFFFFFFFFFFFFFFFFFFFFFFFFFF AND PUSH20 0xFFFFFFFFFFFFFFFFFFFFFFFFFFFFFFFFFFFFFFFF AND CALLER PUSH20 0xFFFFFFFFFFFFFFFFFFFFFFFFFFFFFFFFFFFFFFFF AND EQ PUSH2 0x542 JUMPI PUSH1 0x40 MLOAD PUSH32 0x8C379A000000000000000000000000000000000000000000000000000000000 DUP2 MSTORE PUSH1 0x4 ADD PUSH2 0x539 SWAP1 PUSH2 0x9EE JUMP JUMPDEST PUSH1 0x40 MLOAD DUP1 SWAP2 SUB SWAP1 REVERT JUMPDEST PUSH1 0x0 PUSH1 0x2 PUSH2 0x54E PUSH2 0x5DA JUMP JUMPDEST PUSH1 0x0 SHR PUSH2 0x55B SWAP2 SWAP1 PUSH2 0xBE7 JUMP JUMPDEST SWAP1 POP PUSH1 0x0 JUMPDEST PUSH1 0x1 DUP1 SLOAD SWAP1 POP DUP2 LT ISZERO PUSH2 0x5C8 JUMPI PUSH2 0x5B5 PUSH1 0x1 DUP3 DUP2 SLOAD DUP2 LT PUSH2 0x584 JUMPI PUSH2 0x583 PUSH2 0xC76 JUMP JUMPDEST JUMPDEST SWAP1 PUSH1 0x0 MSTORE PUSH1 0x20 PUSH1 0x0 KECCAK256 ADD PUSH1 0x0 SWAP1 SLOAD SWAP1 PUSH2 0x100 EXP SWAP1 DIV PUSH20 0xFFFFFFFFFFFFFFFFFFFFFFFFFFFFFFFFFFFFFFFF AND DUP4 PUSH2 0x620 JUMP JUMPDEST DUP1 DUP1 PUSH2 0x5C0 SWAP1 PUSH2 0xB9E JUMP JUMPDEST SWAP2 POP POP PUSH2 0x560 JUMP JUMPDEST POP PUSH1 0x1 PUSH1 0x0 PUSH2 0x5D7 SWAP2 SWAP1 PUSH2 0x7F8 JUMP JUMPDEST POP JUMP JUMPDEST PUSH1 0x0 PUSH2 0x5E4 PUSH2 0x819 JUMP JUMPDEST NUMBER DUP2 PUSH1 0x0 PUSH1 0x1 DUP2 LT PUSH2 0x5F9 JUMPI PUSH2 0x5F8 PUSH2 0xC76 JUMP JUMPDEST JUMPDEST PUSH1 0x20 MUL ADD DUP2 DUP2 MSTORE POP POP PUSH1 0x40 MLOAD PUSH1 0x20 DUP2 PUSH1 0x20 DUP5 PUSH1 0xFF PUSH1 0x0 NOT STATICCALL PUSH2 0x617 JUMPI INVALID JUMPDEST DUP1 MLOAD SWAP3 POP POP POP SWAP1 JUMP JUMPDEST DUP1 PUSH1 0x2 PUSH1 0x0 DUP5 PUSH20 0xFFFFFFFFFFFFFFFFFFFFFFFFFFFFFFFFFFFFFFFF AND PUSH20 0xFFFFFFFFFFFFFFFFFFFFFFFFFFFFFFFFFFFFFFFF AND DUP2 MSTORE PUSH1 0x20 ADD SWAP1 DUP2 MSTORE PUSH1 0x20 ADD PUSH1 0x0 KECCAK256 PUSH1 0x3 ADD SLOAD EQ ISZERO PUSH2 0x799 JUMPI PUSH1 0x2 PUSH1 0x0 DUP4 PUSH20 0xFFFFFFFFFFFFFFFFFFFFFFFFFFFFFFFFFFFFFFFF AND PUSH20 0xFFFFFFFFFFFFFFFFFFFFFFFFFFFFFFFFFFFFFFFF AND DUP2 MSTORE PUSH1 0x20 ADD SWAP1 DUP2 MSTORE PUSH1 0x20 ADD PUSH1 0x0 KECCAK256 PUSH1 0x1 ADD SLOAD PUSH1 0x2 PUSH2 0x6B9 SWAP2 SWAP1 PUSH2 0xAC8 JUMP JUMPDEST PUSH1 0x2 PUSH1 0x0 DUP5 PUSH20 0xFFFFFFFFFFFFFFFFFFFFFFFFFFFFFFFFFFFFFFFF AND PUSH20 0xFFFFFFFFFFFFFFFFFFFFFFFFFFFFFFFFFFFFFFFF AND DUP2 MSTORE PUSH1 0x20 ADD SWAP1 DUP2 MSTORE PUSH1 0x20 ADD PUSH1 0x0 KECCAK256 PUSH1 0x0 ADD PUSH1 0x0 DUP3 DUP3 SLOAD PUSH2 0x70A SWAP2 SWAP1 PUSH2 0xA72 JUMP JUMPDEST SWAP3 POP POP DUP2 SWAP1 SSTORE POP PUSH32 0x9C2270628A9B29D30AE96B6C4C14ED646EE134FEBDCE38A5B77F2BDE9CEA2E20 DUP3 PUSH1 0x2 PUSH1 0x0 DUP6 PUSH20 0xFFFFFFFFFFFFFFFFFFFFFFFFFFFFFFFFFFFFFFFF AND PUSH20 0xFFFFFFFFFFFFFFFFFFFFFFFFFFFFFFFFFFFFFFFF AND DUP2 MSTORE PUSH1 0x20 ADD SWAP1 DUP2 MSTORE PUSH1 0x20 ADD PUSH1 0x0 KECCAK256 PUSH1 0x1 ADD SLOAD PUSH1 0x2 PUSH2 0x782 SWAP2 SWAP1 PUSH2 0xAC8 JUMP JUMPDEST PUSH1 0x40 MLOAD PUSH2 0x790 SWAP3 SWAP2 SWAP1 PUSH2 0x985 JUMP JUMPDEST PUSH1 0x40 MLOAD DUP1 SWAP2 SUB SWAP1 LOG1 JUMPDEST PUSH1 0x0 PUSH1 0x2 PUSH1 0x0 DUP5 PUSH20 0xFFFFFFFFFFFFFFFFFFFFFFFFFFFFFFFFFFFFFFFF AND PUSH20 0xFFFFFFFFFFFFFFFFFFFFFFFFFFFFFFFFFFFFFFFF AND DUP2 MSTORE PUSH1 0x20 ADD SWAP1 DUP2 MSTORE PUSH1 0x20 ADD PUSH1 0x0 KECCAK256 PUSH1 0x2 ADD PUSH1 0x0 PUSH2 0x100 EXP DUP2 SLOAD DUP2 PUSH1 0xFF MUL NOT AND SWAP1 DUP4 ISZERO ISZERO MUL OR SWAP1 SSTORE POP POP POP JUMP JUMPDEST POP DUP1 SLOAD PUSH1 0x0 DUP3 SSTORE SWAP1 PUSH1 0x0 MSTORE PUSH1 0x20 PUSH1 0x0 KECCAK256 SWAP1 DUP2 ADD SWAP1 PUSH2 0x816 SWAP2 SWAP1 PUSH2 0x83B JUMP JUMPDEST POP JUMP JUMPDEST PUSH1 0x40 MLOAD DUP1 PUSH1 0x20 ADD PUSH1 0x40 MSTORE DUP1 PUSH1 0x1 SWAP1 PUSH1 0x20 DUP3 MUL DUP1 CALLDATASIZE DUP4 CALLDATACOPY DUP1 DUP3 ADD SWAP2 POP POP SWAP1 POP POP SWAP1 JUMP JUMPDEST JUMPDEST DUP1 DUP3 GT ISZERO PUSH2 0x854 JUMPI PUSH1 0x0 DUP2 PUSH1 0x0 SWAP1 SSTORE POP PUSH1 0x1 ADD PUSH2 0x83C JUMP JUMPDEST POP SWAP1 JUMP JUMPDEST PUSH1 0x0 DUP2 CALLDATALOAD SWAP1 POP PUSH2 0x867 DUP2 PUSH2 0xD4B JUMP JUMPDEST SWAP3 SWAP2 POP POP JUMP JUMPDEST PUSH1 0x0 DUP2 CALLDATALOAD SWAP1 POP PUSH2 0x87C DUP2 PUSH2 0xD62 JUMP JUMPDEST SWAP3 SWAP2 POP POP JUMP JUMPDEST PUSH1 0x0 PUSH1 0x20 DUP3 DUP5 SUB SLT ISZERO PUSH2 0x898 JUMPI PUSH2 0x897 PUSH2 0xCA5 JUMP JUMPDEST JUMPDEST PUSH1 0x0 PUSH2 0x8A6 DUP5 DUP3 DUP6 ADD PUSH2 0x858 JUMP JUMPDEST SWAP2 POP POP SWAP3 SWAP2 POP POP JUMP JUMPDEST PUSH1 0x0 DUP1 PUSH1 0x40 DUP4 DUP6 SUB SLT ISZERO PUSH2 0x8C6 JUMPI PUSH2 0x8C5 PUSH2 0xCA5 JUMP JUMPDEST JUMPDEST PUSH1 0x0 PUSH2 0x8D4 DUP6 DUP3 DUP7 ADD PUSH2 0x86D JUMP JUMPDEST SWAP3 POP POP PUSH1 0x20 PUSH2 0x8E5 DUP6 DUP3 DUP7 ADD PUSH2 0x86D JUMP JUMPDEST SWAP2 POP POP SWAP3 POP SWAP3 SWAP1 POP JUMP JUMPDEST PUSH2 0x8F8 DUP2 PUSH2 0xB56 JUMP JUMPDEST DUP3 MSTORE POP POP JUMP JUMPDEST PUSH2 0x907 DUP2 PUSH2 0xB68 JUMP JUMPDEST DUP3 MSTORE POP POP JUMP JUMPDEST PUSH1 0x0 PUSH2 0x91A PUSH1 0x15 DUP4 PUSH2 0xA61 JUMP JUMPDEST SWAP2 POP PUSH2 0x925 DUP3 PUSH2 0xCAA JUMP JUMPDEST PUSH1 0x20 DUP3 ADD SWAP1 POP SWAP2 SWAP1 POP JUMP JUMPDEST PUSH1 0x0 PUSH2 0x93D PUSH1 0x22 DUP4 PUSH2 0xA61 JUMP JUMPDEST SWAP2 POP PUSH2 0x948 DUP3 PUSH2 0xCD3 JUMP JUMPDEST PUSH1 0x40 DUP3 ADD SWAP1 POP SWAP2 SWAP1 POP JUMP JUMPDEST PUSH1 0x0 PUSH2 0x960 PUSH1 0x14 DUP4 PUSH2 0xA61 JUMP JUMPDEST SWAP2 POP PUSH2 0x96B DUP3 PUSH2 0xD22 JUMP JUMPDEST PUSH1 0x20 DUP3 ADD SWAP1 POP SWAP2 SWAP1 POP JUMP JUMPDEST PUSH2 0x97F DUP2 PUSH2 0xB94 JUMP JUMPDEST DUP3 MSTORE POP POP JUMP JUMPDEST PUSH1 0x0 PUSH1 0x40 DUP3 ADD SWAP1 POP PUSH2 0x99A PUSH1 0x0 DUP4 ADD DUP6 PUSH2 0x8EF JUMP JUMPDEST PUSH2 0x9A7 PUSH1 0x20 DUP4 ADD DUP5 PUSH2 0x976 JUMP JUMPDEST SWAP4 SWAP3 POP POP POP JUMP JUMPDEST PUSH1 0x0 PUSH1 0x20 DUP3 ADD SWAP1 POP DUP2 DUP2 SUB PUSH1 0x0 DUP4 ADD MSTORE PUSH2 0x9C7 DUP2 PUSH2 0x90D JUMP JUMPDEST SWAP1 POP SWAP2 SWAP1 POP JUMP JUMPDEST PUSH1 0x0 PUSH1 0x20 DUP3 ADD SWAP1 POP DUP2 DUP2 SUB PUSH1 0x0 DUP4 ADD MSTORE PUSH2 0x9E7 DUP2 PUSH2 0x930 JUMP JUMPDEST SWAP1 POP SWAP2 SWAP1 POP JUMP JUMPDEST PUSH1 0x0 PUSH1 0x20 DUP3 ADD SWAP1 POP DUP2 DUP2 SUB PUSH1 0x0 DUP4 ADD MSTORE PUSH2 0xA07 DUP2 PUSH2 0x953 JUMP JUMPDEST SWAP1 POP SWAP2 SWAP1 POP JUMP JUMPDEST PUSH1 0x0 PUSH1 0xA0 DUP3 ADD SWAP1 POP PUSH2 0xA23 PUSH1 0x0 DUP4 ADD DUP9 PUSH2 0x976 JUMP JUMPDEST PUSH2 0xA30 PUSH1 0x20 DUP4 ADD DUP8 PUSH2 0x976 JUMP JUMPDEST PUSH2 0xA3D PUSH1 0x40 DUP4 ADD DUP7 PUSH2 0x8FE JUMP JUMPDEST PUSH2 0xA4A PUSH1 0x60 DUP4 ADD DUP6 PUSH2 0x976 JUMP JUMPDEST PUSH2 0xA57 PUSH1 0x80 DUP4 ADD DUP5 PUSH2 0x8FE JUMP JUMPDEST SWAP7 SWAP6 POP POP POP POP POP POP JUMP JUMPDEST PUSH1 0x0 DUP3 DUP3 MSTORE PUSH1 0x20 DUP3 ADD SWAP1 POP SWAP3 SWAP2 POP POP JUMP JUMPDEST PUSH1 0x0 PUSH2 0xA7D DUP3 PUSH2 0xB94 JUMP JUMPDEST SWAP2 POP PUSH2 0xA88 DUP4 PUSH2 0xB94 JUMP JUMPDEST SWAP3 POP DUP3 PUSH32 0xFFFFFFFFFFFFFFFFFFFFFFFFFFFFFFFFFFFFFFFFFFFFFFFFFFFFFFFFFFFFFFFF SUB DUP3 GT ISZERO PUSH2 0xABD JUMPI PUSH2 0xABC PUSH2 0xC18 JUMP JUMPDEST JUMPDEST DUP3 DUP3 ADD SWAP1 POP SWAP3 SWAP2 POP POP JUMP JUMPDEST PUSH1 0x0 PUSH2 0xAD3 DUP3 PUSH2 0xB94 JUMP JUMPDEST SWAP2 POP PUSH2 0xADE DUP4 PUSH2 0xB94 JUMP JUMPDEST SWAP3 POP DUP2 PUSH32 0xFFFFFFFFFFFFFFFFFFFFFFFFFFFFFFFFFFFFFFFFFFFFFFFFFFFFFFFFFFFFFFFF DIV DUP4 GT DUP3 ISZERO ISZERO AND ISZERO PUSH2 0xB17 JUMPI PUSH2 0xB16 PUSH2 0xC18 JUMP JUMPDEST JUMPDEST DUP3 DUP3 MUL SWAP1 POP SWAP3 SWAP2 POP POP JUMP JUMPDEST PUSH1 0x0 PUSH2 0xB2D DUP3 PUSH2 0xB94 JUMP JUMPDEST SWAP2 POP PUSH2 0xB38 DUP4 PUSH2 0xB94 JUMP JUMPDEST SWAP3 POP DUP3 DUP3 LT ISZERO PUSH2 0xB4B JUMPI PUSH2 0xB4A PUSH2 0xC18 JUMP JUMPDEST JUMPDEST DUP3 DUP3 SUB SWAP1 POP SWAP3 SWAP2 POP POP JUMP JUMPDEST PUSH1 0x0 PUSH2 0xB61 DUP3 PUSH2 0xB74 JUMP JUMPDEST SWAP1 POP SWAP2 SWAP1 POP JUMP JUMPDEST PUSH1 0x0 DUP2 ISZERO ISZERO SWAP1 POP SWAP2 SWAP1 POP JUMP JUMPDEST PUSH1 0x0 PUSH20 0xFFFFFFFFFFFFFFFFFFFFFFFFFFFFFFFFFFFFFFFF DUP3 AND SWAP1 POP SWAP2 SWAP1 POP JUMP JUMPDEST PUSH1 0x0 DUP2 SWAP1 POP SWAP2 SWAP1 POP JUMP JUMPDEST PUSH1 0x0 PUSH2 0xBA9 DUP3 PUSH2 0xB94 JUMP JUMPDEST SWAP2 POP PUSH32 0xFFFFFFFFFFFFFFFFFFFFFFFFFFFFFFFFFFFFFFFFFFFFFFFFFFFFFFFFFFFFFFFF DUP3 EQ ISZERO PUSH2 0xBDC JUMPI PUSH2 0xBDB PUSH2 0xC18 JUMP JUMPDEST JUMPDEST PUSH1 0x1 DUP3 ADD SWAP1 POP SWAP2 SWAP1 POP JUMP JUMPDEST PUSH1 0x0 PUSH2 0xBF2 DUP3 PUSH2 0xB94 JUMP JUMPDEST SWAP2 POP PUSH2 0xBFD DUP4 PUSH2 0xB94 JUMP JUMPDEST SWAP3 POP DUP3 PUSH2 0xC0D JUMPI PUSH2 0xC0C PUSH2 0xC47 JUMP JUMPDEST JUMPDEST DUP3 DUP3 MOD SWAP1 POP SWAP3 SWAP2 POP POP JUMP JUMPDEST PUSH32 0x4E487B7100000000000000000000000000000000000000000000000000000000 PUSH1 0x0 MSTORE PUSH1 0x11 PUSH1 0x4 MSTORE PUSH1 0x24 PUSH1 0x0 REVERT JUMPDEST PUSH32 0x4E487B7100000000000000000000000000000000000000000000000000000000 PUSH1 0x0 MSTORE PUSH1 0x12 PUSH1 0x4 MSTORE PUSH1 0x24 PUSH1 0x0 REVERT JUMPDEST PUSH32 0x4E487B7100000000000000000000000000000000000000000000000000000000 PUSH1 0x0 MSTORE PUSH1 0x32 PUSH1 0x4 MSTORE PUSH1 0x24 PUSH1 0x0 REVERT JUMPDEST PUSH1 0x0 DUP1 REVERT JUMPDEST PUSH32 0x536F72727921204C6F772062616C616E6365203B280000000000000000000000 PUSH1 0x0 DUP3 ADD MSTORE POP JUMP JUMPDEST PUSH32 0x596F7520616C7265616479206861766520616E204F6E676F696E672042657420 PUSH1 0x0 DUP3 ADD MSTORE PUSH32 0x3A7C000000000000000000000000000000000000000000000000000000000000 PUSH1 0x20 DUP3 ADD MSTORE POP JUMP JUMPDEST PUSH32 0x496E766F6B6572206973206E6F74204F776E6572000000000000000000000000 PUSH1 0x0 DUP3 ADD MSTORE POP JUMP JUMPDEST PUSH2 0xD54 DUP2 PUSH2 0xB56 JUMP JUMPDEST DUP2 EQ PUSH2 0xD5F JUMPI PUSH1 0x0 DUP1 REVERT JUMPDEST POP JUMP JUMPDEST PUSH2 0xD6B DUP2 PUSH2 0xB94 JUMP JUMPDEST DUP2 EQ PUSH2 0xD76 JUMPI PUSH1 0x0 DUP1 REVERT JUMPDEST POP JUMP INVALID LOG2 PUSH5 0x6970667358 0x22 SLT KECCAK256 PUSH12 0xDCFF2EE117B5BF2662F371C4 0x5E SWAP6 DELEGATECALL 0xBC 0xBA SGT GASPRICE SSTORE 0xDC STATICCALL EQ PUSH32 0x11DBAE14505AC364736F6C634300080700330000000000000000000000000000 "
				},
				"gasEstimates": {
					"creation": {
						"codeDepositCost": "700600",
						"executionCost": "28678",
						"totalCost": "729278"
					},
					"external": {
						"placeBet(uint256,uint256)": "infinite",
						"rewardBets()": "infinite",
						"users(address)": "infinite"
					},
					"internal": {
						"_vrf()": "infinite",
						"evaluateBets(address,uint256)": "infinite"
					}
				},
				"methodIdentifiers": {
					"placeBet(uint256,uint256)": "4afe62b5",
					"rewardBets()": "dc7e462e",
					"users(address)": "a87430ba"
				}
			},
			"userdoc": {
				"kind": "user",
				"methods": {},
				"version": 1
			}
		}
	}
}